{
	"Copy_marketPlace.sol": {
		"Marketplace": {
			"abi": [
				{
					"inputs": [],
					"stateMutability": "nonpayable",
					"type": "constructor"
				},
				{
					"anonymous": false,
					"inputs": [
						{
							"indexed": true,
							"internalType": "uint256",
							"name": "itemId",
							"type": "uint256"
						},
						{
							"indexed": true,
							"internalType": "address",
							"name": "seller",
							"type": "address"
						},
						{
							"indexed": false,
							"internalType": "uint256",
							"name": "price",
							"type": "uint256"
						}
					],
					"name": "ItemListed",
					"type": "event"
				},
				{
					"anonymous": false,
					"inputs": [
						{
							"indexed": true,
							"internalType": "uint256",
							"name": "itemId",
							"type": "uint256"
						},
						{
							"indexed": true,
							"internalType": "address",
							"name": "seller",
							"type": "address"
						},
						{
							"indexed": true,
							"internalType": "address",
							"name": "buyer",
							"type": "address"
						},
						{
							"indexed": false,
							"internalType": "uint256",
							"name": "amount",
							"type": "uint256"
						}
					],
					"name": "OfferAccepted",
					"type": "event"
				},
				{
					"anonymous": false,
					"inputs": [
						{
							"indexed": true,
							"internalType": "uint256",
							"name": "itemId",
							"type": "uint256"
						},
						{
							"indexed": true,
							"internalType": "address",
							"name": "buyer",
							"type": "address"
						},
						{
							"indexed": false,
							"internalType": "uint256",
							"name": "amount",
							"type": "uint256"
						}
					],
					"name": "OfferPlaced",
					"type": "event"
				},
				{
					"inputs": [
						{
							"internalType": "uint256",
							"name": "itemId",
							"type": "uint256"
						},
						{
							"internalType": "uint256",
							"name": "offerId",
							"type": "uint256"
						}
					],
					"name": "acceptOffer",
					"outputs": [],
					"stateMutability": "nonpayable",
					"type": "function"
				},
				{
					"inputs": [],
					"name": "itemCount",
					"outputs": [
						{
							"internalType": "uint256",
							"name": "",
							"type": "uint256"
						}
					],
					"stateMutability": "view",
					"type": "function"
				},
				{
					"inputs": [
						{
							"internalType": "uint256",
							"name": "",
							"type": "uint256"
						}
					],
					"name": "items",
					"outputs": [
						{
							"internalType": "address",
							"name": "seller",
							"type": "address"
						},
						{
							"internalType": "uint256",
							"name": "price",
							"type": "uint256"
						},
						{
							"internalType": "bool",
							"name": "exists",
							"type": "bool"
						},
						{
							"internalType": "bool",
							"name": "sold",
							"type": "bool"
						}
					],
					"stateMutability": "view",
					"type": "function"
				},
				{
					"inputs": [
						{
							"internalType": "uint256",
							"name": "price",
							"type": "uint256"
						}
					],
					"name": "listItem",
					"outputs": [
						{
							"internalType": "uint256",
							"name": "",
							"type": "uint256"
						}
					],
					"stateMutability": "nonpayable",
					"type": "function"
				},
				{
					"inputs": [
						{
							"internalType": "uint256",
							"name": "itemId",
							"type": "uint256"
						}
					],
					"name": "makeOffer",
					"outputs": [
						{
							"internalType": "uint256",
							"name": "",
							"type": "uint256"
						}
					],
					"stateMutability": "payable",
					"type": "function"
				},
				{
					"inputs": [],
					"name": "offerCount",
					"outputs": [
						{
							"internalType": "uint256",
							"name": "",
							"type": "uint256"
						}
					],
					"stateMutability": "view",
					"type": "function"
				},
				{
					"inputs": [
						{
							"internalType": "uint256",
							"name": "",
							"type": "uint256"
						}
					],
					"name": "offers",
					"outputs": [
						{
							"internalType": "address",
							"name": "buyer",
							"type": "address"
						},
						{
							"internalType": "uint256",
							"name": "amount",
							"type": "uint256"
						},
						{
							"internalType": "bool",
							"name": "exists",
							"type": "bool"
						},
						{
							"internalType": "bool",
							"name": "accepted",
							"type": "bool"
						}
					],
					"stateMutability": "view",
					"type": "function"
				}
			],
			"devdoc": {
				"kind": "dev",
				"methods": {},
				"version": 1
			},
			"evm": {
				"assembly": "    /* \"Copy_marketPlace.sol\":57:2763  contract Marketplace {... */\n  mstore(0x40, 0x80)\n    /* \"Copy_marketPlace.sol\":1276:1344  constructor() {... */\n  callvalue\n  dup1\n  iszero\n  tag_1\n  jumpi\n  0x00\n  dup1\n  revert\ntag_1:\n  pop\n    /* \"Copy_marketPlace.sol\":1312:1313  0 */\n  0x00\n    /* \"Copy_marketPlace.sol\":1300:1309  itemCount */\n  0x02\n    /* \"Copy_marketPlace.sol\":1300:1313  itemCount = 0 */\n  dup2\n  swap1\n  sstore\n  pop\n    /* \"Copy_marketPlace.sol\":1336:1337  0 */\n  0x00\n    /* \"Copy_marketPlace.sol\":1323:1333  offerCount */\n  0x03\n    /* \"Copy_marketPlace.sol\":1323:1337  offerCount = 0 */\n  dup2\n  swap1\n  sstore\n  pop\n    /* \"Copy_marketPlace.sol\":57:2763  contract Marketplace {... */\n  dataSize(sub_0)\n  dup1\n  dataOffset(sub_0)\n  0x00\n  codecopy\n  0x00\n  return\nstop\n\nsub_0: assembly {\n        /* \"Copy_marketPlace.sol\":57:2763  contract Marketplace {... */\n      mstore(0x40, 0x80)\n      jumpi(tag_1, lt(calldatasize, 0x04))\n      shr(0xe0, calldataload(0x00))\n      dup1\n      0x81257bd5\n      gt\n      tag_9\n      jumpi\n      dup1\n      0x81257bd5\n      eq\n      tag_5\n      jumpi\n      dup1\n      0x8a72ea6a\n      eq\n      tag_6\n      jumpi\n      dup1\n      0x9a2f6474\n      eq\n      tag_7\n      jumpi\n      dup1\n      0xbfb231d2\n      eq\n      tag_8\n      jumpi\n      jump(tag_1)\n    tag_9:\n      dup1\n      0x1115c24d\n      eq\n      tag_2\n      jumpi\n      dup1\n      0x2ce38190\n      eq\n      tag_3\n      jumpi\n      dup1\n      0x6bfb0d01\n      eq\n      tag_4\n      jumpi\n    tag_1:\n      0x00\n      dup1\n      revert\n        /* \"Copy_marketPlace.sol\":432:457  uint256 public offerCount */\n    tag_2:\n      callvalue\n      dup1\n      iszero\n      tag_10\n      jumpi\n      0x00\n      dup1\n      revert\n    tag_10:\n      pop\n      tag_11\n      tag_12\n      jump\t// in\n    tag_11:\n      mload(0x40)\n      tag_13\n      swap2\n      swap1\n      tag_14\n      jump\t// in\n    tag_13:\n      mload(0x40)\n      dup1\n      swap2\n      sub\n      swap1\n      return\n        /* \"Copy_marketPlace.sol\":1350:1582  function listItem(uint256 price) public returns (uint256) {... */\n    tag_3:\n      callvalue\n      dup1\n      iszero\n      tag_15\n      jumpi\n      0x00\n      dup1\n      revert\n    tag_15:\n      pop\n      tag_16\n      0x04\n      dup1\n      calldatasize\n      sub\n      dup2\n      add\n      swap1\n      tag_17\n      swap2\n      swap1\n      tag_18\n      jump\t// in\n    tag_17:\n      tag_19\n      jump\t// in\n    tag_16:\n      mload(0x40)\n      tag_20\n      swap2\n      swap1\n      tag_14\n      jump\t// in\n    tag_20:\n      mload(0x40)\n      dup1\n      swap2\n      sub\n      swap1\n      return\n        /* \"Copy_marketPlace.sol\":402:426  uint256 public itemCount */\n    tag_4:\n      callvalue\n      dup1\n      iszero\n      tag_21\n      jumpi\n      0x00\n      dup1\n      revert\n    tag_21:\n      pop\n      tag_22\n      tag_23\n      jump\t// in\n    tag_22:\n      mload(0x40)\n      tag_24\n      swap2\n      swap1\n      tag_14\n      jump\t// in\n    tag_24:\n      mload(0x40)\n      dup1\n      swap2\n      sub\n      swap1\n      return\n        /* \"Copy_marketPlace.sol\":1886:2761  function acceptOffer(uint256 itemId, uint256 offerId) public itemExists(itemId) itemNotSold(itemId) offerExists(offerId) offerNotAccepted(offerId) {... */\n    tag_5:\n      callvalue\n      dup1\n      iszero\n      tag_25\n      jumpi\n      0x00\n      dup1\n      revert\n    tag_25:\n      pop\n      tag_26\n      0x04\n      dup1\n      calldatasize\n      sub\n      dup2\n      add\n      swap1\n      tag_27\n      swap2\n      swap1\n      tag_28\n      jump\t// in\n    tag_27:\n      tag_29\n      jump\t// in\n    tag_26:\n      stop\n        /* \"Copy_marketPlace.sol\":356:395  mapping(uint256 => Offer) public offers */\n    tag_6:\n      callvalue\n      dup1\n      iszero\n      tag_30\n      jumpi\n      0x00\n      dup1\n      revert\n    tag_30:\n      pop\n      tag_31\n      0x04\n      dup1\n      calldatasize\n      sub\n      dup2\n      add\n      swap1\n      tag_32\n      swap2\n      swap1\n      tag_18\n      jump\t// in\n    tag_32:\n      tag_33\n      jump\t// in\n    tag_31:\n      mload(0x40)\n      tag_34\n      swap5\n      swap4\n      swap3\n      swap2\n      swap1\n      tag_35\n      jump\t// in\n    tag_34:\n      mload(0x40)\n      dup1\n      swap2\n      sub\n      swap1\n      return\n        /* \"Copy_marketPlace.sol\":1588:1880  function makeOffer(uint256 itemId) public payable itemExists(itemId) itemNotSold(itemId) returns (uint256) {... */\n    tag_7:\n      tag_36\n      0x04\n      dup1\n      calldatasize\n      sub\n      dup2\n      add\n      swap1\n      tag_37\n      swap2\n      swap1\n      tag_18\n      jump\t// in\n    tag_37:\n      tag_38\n      jump\t// in\n    tag_36:\n      mload(0x40)\n      tag_39\n      swap2\n      swap1\n      tag_14\n      jump\t// in\n    tag_39:\n      mload(0x40)\n      dup1\n      swap2\n      sub\n      swap1\n      return\n        /* \"Copy_marketPlace.sol\":313:350  mapping(uint256 => Item) public items */\n    tag_8:\n      callvalue\n      dup1\n      iszero\n      tag_40\n      jumpi\n      0x00\n      dup1\n      revert\n    tag_40:\n      pop\n      tag_41\n      0x04\n      dup1\n      calldatasize\n      sub\n      dup2\n      add\n      swap1\n      tag_42\n      swap2\n      swap1\n      tag_18\n      jump\t// in\n    tag_42:\n      tag_43\n      jump\t// in\n    tag_41:\n      mload(0x40)\n      tag_44\n      swap5\n      swap4\n      swap3\n      swap2\n      swap1\n      tag_35\n      jump\t// in\n    tag_44:\n      mload(0x40)\n      dup1\n      swap2\n      sub\n      swap1\n      return\n        /* \"Copy_marketPlace.sol\":432:457  uint256 public offerCount */\n    tag_12:\n      sload(0x03)\n      dup2\n      jump\t// out\n        /* \"Copy_marketPlace.sol\":1350:1582  function listItem(uint256 price) public returns (uint256) {... */\n    tag_19:\n        /* \"Copy_marketPlace.sol\":1399:1406  uint256 */\n      0x00\n        /* \"Copy_marketPlace.sol\":1418:1427  itemCount */\n      0x02\n      0x00\n        /* \"Copy_marketPlace.sol\":1418:1429  itemCount++ */\n      dup2\n      sload\n      dup1\n      swap3\n      swap2\n      swap1\n      tag_46\n      swap1\n      tag_47\n      jump\t// in\n    tag_46:\n      swap2\n      swap1\n      pop\n      sstore\n      pop\n        /* \"Copy_marketPlace.sol\":1458:1494  Item(msg.sender, price, true, false) */\n      mload(0x40)\n      dup1\n      0x80\n      add\n      0x40\n      mstore\n      dup1\n        /* \"Copy_marketPlace.sol\":1463:1473  msg.sender */\n      caller\n        /* \"Copy_marketPlace.sol\":1458:1494  Item(msg.sender, price, true, false) */\n      0xffffffffffffffffffffffffffffffffffffffff\n      and\n      dup2\n      mstore\n      0x20\n      add\n        /* \"Copy_marketPlace.sol\":1475:1480  price */\n      dup4\n        /* \"Copy_marketPlace.sol\":1458:1494  Item(msg.sender, price, true, false) */\n      dup2\n      mstore\n      0x20\n      add\n        /* \"Copy_marketPlace.sol\":1482:1486  true */\n      0x01\n        /* \"Copy_marketPlace.sol\":1458:1494  Item(msg.sender, price, true, false) */\n      iszero\n      iszero\n      dup2\n      mstore\n      0x20\n      add\n        /* \"Copy_marketPlace.sol\":1488:1493  false */\n      0x00\n        /* \"Copy_marketPlace.sol\":1458:1494  Item(msg.sender, price, true, false) */\n      iszero\n      iszero\n      dup2\n      mstore\n      pop\n        /* \"Copy_marketPlace.sol\":1439:1444  items */\n      0x00\n        /* \"Copy_marketPlace.sol\":1439:1455  items[itemCount] */\n      dup1\n        /* \"Copy_marketPlace.sol\":1445:1454  itemCount */\n      sload(0x02)\n        /* \"Copy_marketPlace.sol\":1439:1455  items[itemCount] */\n      dup2\n      mstore\n      0x20\n      add\n      swap1\n      dup2\n      mstore\n      0x20\n      add\n      0x00\n      keccak256\n        /* \"Copy_marketPlace.sol\":1439:1494  items[itemCount] = Item(msg.sender, price, true, false) */\n      0x00\n      dup3\n      add\n      mload\n      dup2\n      0x00\n      add\n      exp(0x0100, 0x00)\n      dup2\n      sload\n      dup2\n      0xffffffffffffffffffffffffffffffffffffffff\n      mul\n      not\n      and\n      swap1\n      dup4\n      0xffffffffffffffffffffffffffffffffffffffff\n      and\n      mul\n      or\n      swap1\n      sstore\n      pop\n      0x20\n      dup3\n      add\n      mload\n      dup2\n      0x01\n      add\n      sstore\n      0x40\n      dup3\n      add\n      mload\n      dup2\n      0x02\n      add\n      exp(0x0100, 0x00)\n      dup2\n      sload\n      dup2\n      0xff\n      mul\n      not\n      and\n      swap1\n      dup4\n      iszero\n      iszero\n      mul\n      or\n      swap1\n      sstore\n      pop\n      0x60\n      dup3\n      add\n      mload\n      dup2\n      0x02\n      add\n      exp(0x0100, 0x01)\n      dup2\n      sload\n      dup2\n      0xff\n      mul\n      not\n      and\n      swap1\n      dup4\n      iszero\n      iszero\n      mul\n      or\n      swap1\n      sstore\n      pop\n      swap1\n      pop\n      pop\n        /* \"Copy_marketPlace.sol\":1531:1541  msg.sender */\n      caller\n        /* \"Copy_marketPlace.sol\":1509:1549  ItemListed(itemCount, msg.sender, price) */\n      0xffffffffffffffffffffffffffffffffffffffff\n      and\n        /* \"Copy_marketPlace.sol\":1520:1529  itemCount */\n      sload(0x02)\n        /* \"Copy_marketPlace.sol\":1509:1549  ItemListed(itemCount, msg.sender, price) */\n      0xc93edc6ee14cd6c0c2842099adfa8953b237dbdad304ba28e96dce8a7f2a828c\n        /* \"Copy_marketPlace.sol\":1543:1548  price */\n      dup5\n        /* \"Copy_marketPlace.sol\":1509:1549  ItemListed(itemCount, msg.sender, price) */\n      mload(0x40)\n      tag_48\n      swap2\n      swap1\n      tag_14\n      jump\t// in\n    tag_48:\n      mload(0x40)\n      dup1\n      swap2\n      sub\n      swap1\n      log3\n        /* \"Copy_marketPlace.sol\":1566:1575  itemCount */\n      sload(0x02)\n        /* \"Copy_marketPlace.sol\":1559:1575  return itemCount */\n      swap1\n      pop\n        /* \"Copy_marketPlace.sol\":1350:1582  function listItem(uint256 price) public returns (uint256) {... */\n      swap2\n      swap1\n      pop\n      jump\t// out\n        /* \"Copy_marketPlace.sol\":402:426  uint256 public itemCount */\n    tag_23:\n      sload(0x02)\n      dup2\n      jump\t// out\n        /* \"Copy_marketPlace.sol\":1886:2761  function acceptOffer(uint256 itemId, uint256 offerId) public itemExists(itemId) itemNotSold(itemId) offerExists(offerId) offerNotAccepted(offerId) {... */\n    tag_29:\n        /* \"Copy_marketPlace.sol\":1958:1964  itemId */\n      dup2\n        /* \"Copy_marketPlace.sol\":802:807  items */\n      0x00\n        /* \"Copy_marketPlace.sol\":802:815  items[itemId] */\n      dup1\n        /* \"Copy_marketPlace.sol\":808:814  itemId */\n      dup3\n        /* \"Copy_marketPlace.sol\":802:815  items[itemId] */\n      dup2\n      mstore\n      0x20\n      add\n      swap1\n      dup2\n      mstore\n      0x20\n      add\n      0x00\n      keccak256\n        /* \"Copy_marketPlace.sol\":802:822  items[itemId].exists */\n      0x02\n      add\n      0x00\n      swap1\n      sload\n      swap1\n      0x0100\n      exp\n      swap1\n      div\n      0xff\n      and\n        /* \"Copy_marketPlace.sol\":794:847  require(items[itemId].exists, \"Item does not exist.\") */\n      tag_50\n      jumpi\n      mload(0x40)\n      0x08c379a000000000000000000000000000000000000000000000000000000000\n      dup2\n      mstore\n      0x04\n      add\n      tag_51\n      swap1\n      tag_52\n      jump\t// in\n    tag_51:\n      mload(0x40)\n      dup1\n      swap2\n      sub\n      swap1\n      revert\n    tag_50:\n        /* \"Copy_marketPlace.sol\":1978:1984  itemId */\n      dup3\n        /* \"Copy_marketPlace.sol\":927:932  items */\n      0x00\n        /* \"Copy_marketPlace.sol\":927:940  items[itemId] */\n      dup1\n        /* \"Copy_marketPlace.sol\":933:939  itemId */\n      dup3\n        /* \"Copy_marketPlace.sol\":927:940  items[itemId] */\n      dup2\n      mstore\n      0x20\n      add\n      swap1\n      dup2\n      mstore\n      0x20\n      add\n      0x00\n      keccak256\n        /* \"Copy_marketPlace.sol\":927:945  items[itemId].sold */\n      0x02\n      add\n      0x01\n      swap1\n      sload\n      swap1\n      0x0100\n      exp\n      swap1\n      div\n      0xff\n      and\n        /* \"Copy_marketPlace.sol\":926:945  !items[itemId].sold */\n      iszero\n        /* \"Copy_marketPlace.sol\":918:977  require(!items[itemId].sold, \"Item has already been sold.\") */\n      tag_54\n      jumpi\n      mload(0x40)\n      0x08c379a000000000000000000000000000000000000000000000000000000000\n      dup2\n      mstore\n      0x04\n      add\n      tag_55\n      swap1\n      tag_56\n      jump\t// in\n    tag_55:\n      mload(0x40)\n      dup1\n      swap2\n      sub\n      swap1\n      revert\n    tag_54:\n        /* \"Copy_marketPlace.sol\":1998:2005  offerId */\n      dup3\n        /* \"Copy_marketPlace.sol\":1057:1063  offers */\n      0x01\n        /* \"Copy_marketPlace.sol\":1057:1072  offers[offerId] */\n      0x00\n        /* \"Copy_marketPlace.sol\":1064:1071  offerId */\n      dup3\n        /* \"Copy_marketPlace.sol\":1057:1072  offers[offerId] */\n      dup2\n      mstore\n      0x20\n      add\n      swap1\n      dup2\n      mstore\n      0x20\n      add\n      0x00\n      keccak256\n        /* \"Copy_marketPlace.sol\":1057:1079  offers[offerId].exists */\n      0x02\n      add\n      0x00\n      swap1\n      sload\n      swap1\n      0x0100\n      exp\n      swap1\n      div\n      0xff\n      and\n        /* \"Copy_marketPlace.sol\":1049:1105  require(offers[offerId].exists, \"Offer does not exist.\") */\n      tag_58\n      jumpi\n      mload(0x40)\n      0x08c379a000000000000000000000000000000000000000000000000000000000\n      dup2\n      mstore\n      0x04\n      add\n      tag_59\n      swap1\n      tag_60\n      jump\t// in\n    tag_59:\n      mload(0x40)\n      dup1\n      swap2\n      sub\n      swap1\n      revert\n    tag_58:\n        /* \"Copy_marketPlace.sol\":2024:2031  offerId */\n      dup4\n        /* \"Copy_marketPlace.sol\":1191:1197  offers */\n      0x01\n        /* \"Copy_marketPlace.sol\":1191:1206  offers[offerId] */\n      0x00\n        /* \"Copy_marketPlace.sol\":1198:1205  offerId */\n      dup3\n        /* \"Copy_marketPlace.sol\":1191:1206  offers[offerId] */\n      dup2\n      mstore\n      0x20\n      add\n      swap1\n      dup2\n      mstore\n      0x20\n      add\n      0x00\n      keccak256\n        /* \"Copy_marketPlace.sol\":1191:1215  offers[offerId].accepted */\n      0x02\n      add\n      0x01\n      swap1\n      sload\n      swap1\n      0x0100\n      exp\n      swap1\n      div\n      0xff\n      and\n        /* \"Copy_marketPlace.sol\":1190:1215  !offers[offerId].accepted */\n      iszero\n        /* \"Copy_marketPlace.sol\":1182:1252  require(!offers[offerId].accepted, \"Offer has already been accepted.\") */\n      tag_62\n      jumpi\n      mload(0x40)\n      0x08c379a000000000000000000000000000000000000000000000000000000000\n      dup2\n      mstore\n      0x04\n      add\n      tag_63\n      swap1\n      tag_64\n      jump\t// in\n    tag_63:\n      mload(0x40)\n      dup1\n      swap2\n      sub\n      swap1\n      revert\n    tag_62:\n        /* \"Copy_marketPlace.sol\":2075:2085  msg.sender */\n      caller\n        /* \"Copy_marketPlace.sol\":2051:2085  items[itemId].seller == msg.sender */\n      0xffffffffffffffffffffffffffffffffffffffff\n      and\n        /* \"Copy_marketPlace.sol\":2051:2056  items */\n      0x00\n        /* \"Copy_marketPlace.sol\":2051:2064  items[itemId] */\n      dup1\n        /* \"Copy_marketPlace.sol\":2057:2063  itemId */\n      dup9\n        /* \"Copy_marketPlace.sol\":2051:2064  items[itemId] */\n      dup2\n      mstore\n      0x20\n      add\n      swap1\n      dup2\n      mstore\n      0x20\n      add\n      0x00\n      keccak256\n        /* \"Copy_marketPlace.sol\":2051:2071  items[itemId].seller */\n      0x00\n      add\n      0x00\n      swap1\n      sload\n      swap1\n      0x0100\n      exp\n      swap1\n      div\n      0xffffffffffffffffffffffffffffffffffffffff\n      and\n        /* \"Copy_marketPlace.sol\":2051:2085  items[itemId].seller == msg.sender */\n      0xffffffffffffffffffffffffffffffffffffffff\n      and\n      eq\n        /* \"Copy_marketPlace.sol\":2043:2127  require(items[itemId].seller == msg.sender, \"Only the seller can accept the offer.\") */\n      tag_66\n      jumpi\n      mload(0x40)\n      0x08c379a000000000000000000000000000000000000000000000000000000000\n      dup2\n      mstore\n      0x04\n      add\n      tag_67\n      swap1\n      tag_68\n      jump\t// in\n    tag_67:\n      mload(0x40)\n      dup1\n      swap2\n      sub\n      swap1\n      revert\n    tag_66:\n        /* \"Copy_marketPlace.sol\":2171:2176  items */\n      0x00\n        /* \"Copy_marketPlace.sol\":2171:2184  items[itemId] */\n      dup1\n        /* \"Copy_marketPlace.sol\":2177:2183  itemId */\n      dup8\n        /* \"Copy_marketPlace.sol\":2171:2184  items[itemId] */\n      dup2\n      mstore\n      0x20\n      add\n      swap1\n      dup2\n      mstore\n      0x20\n      add\n      0x00\n      keccak256\n        /* \"Copy_marketPlace.sol\":2171:2190  items[itemId].price */\n      0x01\n      add\n      sload\n        /* \"Copy_marketPlace.sol\":2145:2151  offers */\n      0x01\n        /* \"Copy_marketPlace.sol\":2145:2160  offers[offerId] */\n      0x00\n        /* \"Copy_marketPlace.sol\":2152:2159  offerId */\n      dup8\n        /* \"Copy_marketPlace.sol\":2145:2160  offers[offerId] */\n      dup2\n      mstore\n      0x20\n      add\n      swap1\n      dup2\n      mstore\n      0x20\n      add\n      0x00\n      keccak256\n        /* \"Copy_marketPlace.sol\":2145:2167  offers[offerId].amount */\n      0x01\n      add\n      sload\n        /* \"Copy_marketPlace.sol\":2145:2190  offers[offerId].amount >= items[itemId].price */\n      lt\n      iszero\n        /* \"Copy_marketPlace.sol\":2137:2219  require(offers[offerId].amount >= items[itemId].price, \"Offer amount is too low.\") */\n      tag_69\n      jumpi\n      mload(0x40)\n      0x08c379a000000000000000000000000000000000000000000000000000000000\n      dup2\n      mstore\n      0x04\n      add\n      tag_70\n      swap1\n      tag_71\n      jump\t// in\n    tag_70:\n      mload(0x40)\n      dup1\n      swap2\n      sub\n      swap1\n      revert\n    tag_69:\n        /* \"Copy_marketPlace.sol\":2251:2255  true */\n      0x01\n        /* \"Copy_marketPlace.sol\":2230:2235  items */\n      0x00\n        /* \"Copy_marketPlace.sol\":2230:2243  items[itemId] */\n      dup1\n        /* \"Copy_marketPlace.sol\":2236:2242  itemId */\n      dup9\n        /* \"Copy_marketPlace.sol\":2230:2243  items[itemId] */\n      dup2\n      mstore\n      0x20\n      add\n      swap1\n      dup2\n      mstore\n      0x20\n      add\n      0x00\n      keccak256\n        /* \"Copy_marketPlace.sol\":2230:2248  items[itemId].sold */\n      0x02\n      add\n      0x01\n        /* \"Copy_marketPlace.sol\":2230:2255  items[itemId].sold = true */\n      0x0100\n      exp\n      dup2\n      sload\n      dup2\n      0xff\n      mul\n      not\n      and\n      swap1\n      dup4\n      iszero\n      iszero\n      mul\n      or\n      swap1\n      sstore\n      pop\n        /* \"Copy_marketPlace.sol\":2288:2293  false */\n      0x00\n        /* \"Copy_marketPlace.sol\":2265:2270  items */\n      dup1\n        /* \"Copy_marketPlace.sol\":2265:2278  items[itemId] */\n      0x00\n        /* \"Copy_marketPlace.sol\":2271:2277  itemId */\n      dup9\n        /* \"Copy_marketPlace.sol\":2265:2278  items[itemId] */\n      dup2\n      mstore\n      0x20\n      add\n      swap1\n      dup2\n      mstore\n      0x20\n      add\n      0x00\n      keccak256\n        /* \"Copy_marketPlace.sol\":2265:2285  items[itemId].exists */\n      0x02\n      add\n      0x00\n        /* \"Copy_marketPlace.sol\":2265:2293  items[itemId].exists = false */\n      0x0100\n      exp\n      dup2\n      sload\n      dup2\n      0xff\n      mul\n      not\n      and\n      swap1\n      dup4\n      iszero\n      iszero\n      mul\n      or\n      swap1\n      sstore\n      pop\n        /* \"Copy_marketPlace.sol\":2330:2334  true */\n      0x01\n        /* \"Copy_marketPlace.sol\":2303:2309  offers */\n      dup1\n        /* \"Copy_marketPlace.sol\":2303:2318  offers[offerId] */\n      0x00\n        /* \"Copy_marketPlace.sol\":2310:2317  offerId */\n      dup8\n        /* \"Copy_marketPlace.sol\":2303:2318  offers[offerId] */\n      dup2\n      mstore\n      0x20\n      add\n      swap1\n      dup2\n      mstore\n      0x20\n      add\n      0x00\n      keccak256\n        /* \"Copy_marketPlace.sol\":2303:2327  offers[offerId].accepted */\n      0x02\n      add\n      0x01\n        /* \"Copy_marketPlace.sol\":2303:2334  offers[offerId].accepted = true */\n      0x0100\n      exp\n      dup2\n      sload\n      dup2\n      0xff\n      mul\n      not\n      and\n      swap1\n      dup4\n      iszero\n      iszero\n      mul\n      or\n      swap1\n      sstore\n      pop\n        /* \"Copy_marketPlace.sol\":2389:2394  items */\n      0x00\n        /* \"Copy_marketPlace.sol\":2389:2402  items[itemId] */\n      dup1\n        /* \"Copy_marketPlace.sol\":2395:2401  itemId */\n      dup8\n        /* \"Copy_marketPlace.sol\":2389:2402  items[itemId] */\n      dup2\n      mstore\n      0x20\n      add\n      swap1\n      dup2\n      mstore\n      0x20\n      add\n      0x00\n      keccak256\n        /* \"Copy_marketPlace.sol\":2389:2409  items[itemId].seller */\n      0x00\n      add\n      0x00\n      swap1\n      sload\n      swap1\n      0x0100\n      exp\n      swap1\n      div\n      0xffffffffffffffffffffffffffffffffffffffff\n      and\n        /* \"Copy_marketPlace.sol\":2381:2419  payable(items[itemId].seller).transfer */\n      0xffffffffffffffffffffffffffffffffffffffff\n      and\n        /* \"Copy_marketPlace.sol\":2381:2440  payable(items[itemId].seller).transfer(items[itemId].price) */\n      0x08fc\n        /* \"Copy_marketPlace.sol\":2420:2425  items */\n      0x00\n        /* \"Copy_marketPlace.sol\":2420:2433  items[itemId] */\n      dup1\n        /* \"Copy_marketPlace.sol\":2426:2432  itemId */\n      dup10\n        /* \"Copy_marketPlace.sol\":2420:2433  items[itemId] */\n      dup2\n      mstore\n      0x20\n      add\n      swap1\n      dup2\n      mstore\n      0x20\n      add\n      0x00\n      keccak256\n        /* \"Copy_marketPlace.sol\":2420:2439  items[itemId].price */\n      0x01\n      add\n      sload\n        /* \"Copy_marketPlace.sol\":2381:2440  payable(items[itemId].seller).transfer(items[itemId].price) */\n      swap1\n      dup2\n      iszero\n      mul\n      swap1\n      mload(0x40)\n      0x00\n      mload(0x40)\n      dup1\n      dup4\n      sub\n      dup2\n      dup6\n      dup9\n      dup9\n      call\n      swap4\n      pop\n      pop\n      pop\n      pop\n      iszero\n      dup1\n      iszero\n      tag_73\n      jumpi\n      returndatasize\n      0x00\n      dup1\n      returndatacopy\n      revert(0x00, returndatasize)\n    tag_73:\n      pop\n        /* \"Copy_marketPlace.sol\":2521:2526  items */\n      0x00\n        /* \"Copy_marketPlace.sol\":2521:2534  items[itemId] */\n      dup1\n        /* \"Copy_marketPlace.sol\":2527:2533  itemId */\n      dup8\n        /* \"Copy_marketPlace.sol\":2521:2534  items[itemId] */\n      dup2\n      mstore\n      0x20\n      add\n      swap1\n      dup2\n      mstore\n      0x20\n      add\n      0x00\n      keccak256\n        /* \"Copy_marketPlace.sol\":2521:2540  items[itemId].price */\n      0x01\n      add\n      sload\n        /* \"Copy_marketPlace.sol\":2496:2502  offers */\n      0x01\n        /* \"Copy_marketPlace.sol\":2496:2511  offers[offerId] */\n      0x00\n        /* \"Copy_marketPlace.sol\":2503:2510  offerId */\n      dup8\n        /* \"Copy_marketPlace.sol\":2496:2511  offers[offerId] */\n      dup2\n      mstore\n      0x20\n      add\n      swap1\n      dup2\n      mstore\n      0x20\n      add\n      0x00\n      keccak256\n        /* \"Copy_marketPlace.sol\":2496:2518  offers[offerId].amount */\n      0x01\n      add\n      sload\n        /* \"Copy_marketPlace.sol\":2496:2540  offers[offerId].amount > items[itemId].price */\n      gt\n        /* \"Copy_marketPlace.sol\":2492:2652  if (offers[offerId].amount > items[itemId].price) {... */\n      iszero\n      tag_74\n      jumpi\n        /* \"Copy_marketPlace.sol\":2564:2570  offers */\n      0x01\n        /* \"Copy_marketPlace.sol\":2564:2579  offers[offerId] */\n      0x00\n        /* \"Copy_marketPlace.sol\":2571:2578  offerId */\n      dup7\n        /* \"Copy_marketPlace.sol\":2564:2579  offers[offerId] */\n      dup2\n      mstore\n      0x20\n      add\n      swap1\n      dup2\n      mstore\n      0x20\n      add\n      0x00\n      keccak256\n        /* \"Copy_marketPlace.sol\":2564:2585  offers[offerId].buyer */\n      0x00\n      add\n      0x00\n      swap1\n      sload\n      swap1\n      0x0100\n      exp\n      swap1\n      div\n      0xffffffffffffffffffffffffffffffffffffffff\n      and\n        /* \"Copy_marketPlace.sol\":2556:2595  payable(offers[offerId].buyer).transfer */\n      0xffffffffffffffffffffffffffffffffffffffff\n      and\n        /* \"Copy_marketPlace.sol\":2556:2641  payable(offers[offerId].buyer).transfer(offers[offerId].amount - items[itemId].price) */\n      0x08fc\n        /* \"Copy_marketPlace.sol\":2621:2626  items */\n      0x00\n        /* \"Copy_marketPlace.sol\":2621:2634  items[itemId] */\n      dup1\n        /* \"Copy_marketPlace.sol\":2627:2633  itemId */\n      dup10\n        /* \"Copy_marketPlace.sol\":2621:2634  items[itemId] */\n      dup2\n      mstore\n      0x20\n      add\n      swap1\n      dup2\n      mstore\n      0x20\n      add\n      0x00\n      keccak256\n        /* \"Copy_marketPlace.sol\":2621:2640  items[itemId].price */\n      0x01\n      add\n      sload\n        /* \"Copy_marketPlace.sol\":2596:2602  offers */\n      0x01\n        /* \"Copy_marketPlace.sol\":2596:2611  offers[offerId] */\n      0x00\n        /* \"Copy_marketPlace.sol\":2603:2610  offerId */\n      dup10\n        /* \"Copy_marketPlace.sol\":2596:2611  offers[offerId] */\n      dup2\n      mstore\n      0x20\n      add\n      swap1\n      dup2\n      mstore\n      0x20\n      add\n      0x00\n      keccak256\n        /* \"Copy_marketPlace.sol\":2596:2618  offers[offerId].amount */\n      0x01\n      add\n      sload\n        /* \"Copy_marketPlace.sol\":2596:2640  offers[offerId].amount - items[itemId].price */\n      tag_75\n      swap2\n      swap1\n      tag_76\n      jump\t// in\n    tag_75:\n        /* \"Copy_marketPlace.sol\":2556:2641  payable(offers[offerId].buyer).transfer(offers[offerId].amount - items[itemId].price) */\n      swap1\n      dup2\n      iszero\n      mul\n      swap1\n      mload(0x40)\n      0x00\n      mload(0x40)\n      dup1\n      dup4\n      sub\n      dup2\n      dup6\n      dup9\n      dup9\n      call\n      swap4\n      pop\n      pop\n      pop\n      pop\n      iszero\n      dup1\n      iszero\n      tag_78\n      jumpi\n      returndatasize\n      0x00\n      dup1\n      returndatacopy\n      revert(0x00, returndatasize)\n    tag_78:\n      pop\n        /* \"Copy_marketPlace.sol\":2492:2652  if (offers[offerId].amount > items[itemId].price) {... */\n    tag_74:\n        /* \"Copy_marketPlace.sol\":2711:2717  offers */\n      0x01\n        /* \"Copy_marketPlace.sol\":2711:2726  offers[offerId] */\n      0x00\n        /* \"Copy_marketPlace.sol\":2718:2725  offerId */\n      dup7\n        /* \"Copy_marketPlace.sol\":2711:2726  offers[offerId] */\n      dup2\n      mstore\n      0x20\n      add\n      swap1\n      dup2\n      mstore\n      0x20\n      add\n      0x00\n      keccak256\n        /* \"Copy_marketPlace.sol\":2711:2732  offers[offerId].buyer */\n      0x00\n      add\n      0x00\n      swap1\n      sload\n      swap1\n      0x0100\n      exp\n      swap1\n      div\n      0xffffffffffffffffffffffffffffffffffffffff\n      and\n        /* \"Copy_marketPlace.sol\":2667:2754  OfferAccepted(itemId, items[itemId].seller, offers[offerId].buyer, items[itemId].price) */\n      0xffffffffffffffffffffffffffffffffffffffff\n      and\n        /* \"Copy_marketPlace.sol\":2689:2694  items */\n      0x00\n        /* \"Copy_marketPlace.sol\":2689:2702  items[itemId] */\n      dup1\n        /* \"Copy_marketPlace.sol\":2695:2701  itemId */\n      dup9\n        /* \"Copy_marketPlace.sol\":2689:2702  items[itemId] */\n      dup2\n      mstore\n      0x20\n      add\n      swap1\n      dup2\n      mstore\n      0x20\n      add\n      0x00\n      keccak256\n        /* \"Copy_marketPlace.sol\":2689:2709  items[itemId].seller */\n      0x00\n      add\n      0x00\n      swap1\n      sload\n      swap1\n      0x0100\n      exp\n      swap1\n      div\n      0xffffffffffffffffffffffffffffffffffffffff\n      and\n        /* \"Copy_marketPlace.sol\":2667:2754  OfferAccepted(itemId, items[itemId].seller, offers[offerId].buyer, items[itemId].price) */\n      0xffffffffffffffffffffffffffffffffffffffff\n      and\n        /* \"Copy_marketPlace.sol\":2681:2687  itemId */\n      dup8\n        /* \"Copy_marketPlace.sol\":2667:2754  OfferAccepted(itemId, items[itemId].seller, offers[offerId].buyer, items[itemId].price) */\n      0xc67f49229cab3f614ad390c12432e0e671552dcfd15e24ddc005cf5a01a02135\n        /* \"Copy_marketPlace.sol\":2734:2739  items */\n      0x00\n        /* \"Copy_marketPlace.sol\":2734:2747  items[itemId] */\n      dup1\n        /* \"Copy_marketPlace.sol\":2740:2746  itemId */\n      dup12\n        /* \"Copy_marketPlace.sol\":2734:2747  items[itemId] */\n      dup2\n      mstore\n      0x20\n      add\n      swap1\n      dup2\n      mstore\n      0x20\n      add\n      0x00\n      keccak256\n        /* \"Copy_marketPlace.sol\":2734:2753  items[itemId].price */\n      0x01\n      add\n      sload\n        /* \"Copy_marketPlace.sol\":2667:2754  OfferAccepted(itemId, items[itemId].seller, offers[offerId].buyer, items[itemId].price) */\n      mload(0x40)\n      tag_79\n      swap2\n      swap1\n      tag_14\n      jump\t// in\n    tag_79:\n      mload(0x40)\n      dup1\n      swap2\n      sub\n      swap1\n      log4\n        /* \"Copy_marketPlace.sol\":1115:1116  _ */\n      pop\n        /* \"Copy_marketPlace.sol\":987:988  _ */\n      pop\n        /* \"Copy_marketPlace.sol\":857:858  _ */\n      pop\n        /* \"Copy_marketPlace.sol\":1886:2761  function acceptOffer(uint256 itemId, uint256 offerId) public itemExists(itemId) itemNotSold(itemId) offerExists(offerId) offerNotAccepted(offerId) {... */\n      pop\n      pop\n      pop\n      jump\t// out\n        /* \"Copy_marketPlace.sol\":356:395  mapping(uint256 => Offer) public offers */\n    tag_33:\n      mstore(0x20, 0x01)\n      dup1\n      0x00\n      mstore\n      keccak256(0x00, 0x40)\n      0x00\n      swap2\n      pop\n      swap1\n      pop\n      dup1\n      0x00\n      add\n      0x00\n      swap1\n      sload\n      swap1\n      0x0100\n      exp\n      swap1\n      div\n      0xffffffffffffffffffffffffffffffffffffffff\n      and\n      swap1\n      dup1\n      0x01\n      add\n      sload\n      swap1\n      dup1\n      0x02\n      add\n      0x00\n      swap1\n      sload\n      swap1\n      0x0100\n      exp\n      swap1\n      div\n      0xff\n      and\n      swap1\n      dup1\n      0x02\n      add\n      0x01\n      swap1\n      sload\n      swap1\n      0x0100\n      exp\n      swap1\n      div\n      0xff\n      and\n      swap1\n      pop\n      dup5\n      jump\t// out\n        /* \"Copy_marketPlace.sol\":1588:1880  function makeOffer(uint256 itemId) public payable itemExists(itemId) itemNotSold(itemId) returns (uint256) {... */\n    tag_38:\n        /* \"Copy_marketPlace.sol\":1686:1693  uint256 */\n      0x00\n        /* \"Copy_marketPlace.sol\":1649:1655  itemId */\n      dup2\n        /* \"Copy_marketPlace.sol\":802:807  items */\n      0x00\n        /* \"Copy_marketPlace.sol\":802:815  items[itemId] */\n      dup1\n        /* \"Copy_marketPlace.sol\":808:814  itemId */\n      dup3\n        /* \"Copy_marketPlace.sol\":802:815  items[itemId] */\n      dup2\n      mstore\n      0x20\n      add\n      swap1\n      dup2\n      mstore\n      0x20\n      add\n      0x00\n      keccak256\n        /* \"Copy_marketPlace.sol\":802:822  items[itemId].exists */\n      0x02\n      add\n      0x00\n      swap1\n      sload\n      swap1\n      0x0100\n      exp\n      swap1\n      div\n      0xff\n      and\n        /* \"Copy_marketPlace.sol\":794:847  require(items[itemId].exists, \"Item does not exist.\") */\n      tag_81\n      jumpi\n      mload(0x40)\n      0x08c379a000000000000000000000000000000000000000000000000000000000\n      dup2\n      mstore\n      0x04\n      add\n      tag_82\n      swap1\n      tag_52\n      jump\t// in\n    tag_82:\n      mload(0x40)\n      dup1\n      swap2\n      sub\n      swap1\n      revert\n    tag_81:\n        /* \"Copy_marketPlace.sol\":1669:1675  itemId */\n      dup3\n        /* \"Copy_marketPlace.sol\":927:932  items */\n      0x00\n        /* \"Copy_marketPlace.sol\":927:940  items[itemId] */\n      dup1\n        /* \"Copy_marketPlace.sol\":933:939  itemId */\n      dup3\n        /* \"Copy_marketPlace.sol\":927:940  items[itemId] */\n      dup2\n      mstore\n      0x20\n      add\n      swap1\n      dup2\n      mstore\n      0x20\n      add\n      0x00\n      keccak256\n        /* \"Copy_marketPlace.sol\":927:945  items[itemId].sold */\n      0x02\n      add\n      0x01\n      swap1\n      sload\n      swap1\n      0x0100\n      exp\n      swap1\n      div\n      0xff\n      and\n        /* \"Copy_marketPlace.sol\":926:945  !items[itemId].sold */\n      iszero\n        /* \"Copy_marketPlace.sol\":918:977  require(!items[itemId].sold, \"Item has already been sold.\") */\n      tag_84\n      jumpi\n      mload(0x40)\n      0x08c379a000000000000000000000000000000000000000000000000000000000\n      dup2\n      mstore\n      0x04\n      add\n      tag_85\n      swap1\n      tag_56\n      jump\t// in\n    tag_85:\n      mload(0x40)\n      dup1\n      swap2\n      sub\n      swap1\n      revert\n    tag_84:\n        /* \"Copy_marketPlace.sol\":1705:1715  offerCount */\n      0x03\n      0x00\n        /* \"Copy_marketPlace.sol\":1705:1717  offerCount++ */\n      dup2\n      sload\n      dup1\n      swap3\n      swap2\n      swap1\n      tag_87\n      swap1\n      tag_47\n      jump\t// in\n    tag_87:\n      swap2\n      swap1\n      pop\n      sstore\n      pop\n        /* \"Copy_marketPlace.sol\":1748:1789  Offer(msg.sender, msg.value, true, false) */\n      mload(0x40)\n      dup1\n      0x80\n      add\n      0x40\n      mstore\n      dup1\n        /* \"Copy_marketPlace.sol\":1754:1764  msg.sender */\n      caller\n        /* \"Copy_marketPlace.sol\":1748:1789  Offer(msg.sender, msg.value, true, false) */\n      0xffffffffffffffffffffffffffffffffffffffff\n      and\n      dup2\n      mstore\n      0x20\n      add\n        /* \"Copy_marketPlace.sol\":1766:1775  msg.value */\n      callvalue\n        /* \"Copy_marketPlace.sol\":1748:1789  Offer(msg.sender, msg.value, true, false) */\n      dup2\n      mstore\n      0x20\n      add\n        /* \"Copy_marketPlace.sol\":1777:1781  true */\n      0x01\n        /* \"Copy_marketPlace.sol\":1748:1789  Offer(msg.sender, msg.value, true, false) */\n      iszero\n      iszero\n      dup2\n      mstore\n      0x20\n      add\n        /* \"Copy_marketPlace.sol\":1783:1788  false */\n      0x00\n        /* \"Copy_marketPlace.sol\":1748:1789  Offer(msg.sender, msg.value, true, false) */\n      iszero\n      iszero\n      dup2\n      mstore\n      pop\n        /* \"Copy_marketPlace.sol\":1727:1733  offers */\n      0x01\n        /* \"Copy_marketPlace.sol\":1727:1745  offers[offerCount] */\n      0x00\n        /* \"Copy_marketPlace.sol\":1734:1744  offerCount */\n      sload(0x03)\n        /* \"Copy_marketPlace.sol\":1727:1745  offers[offerCount] */\n      dup2\n      mstore\n      0x20\n      add\n      swap1\n      dup2\n      mstore\n      0x20\n      add\n      0x00\n      keccak256\n        /* \"Copy_marketPlace.sol\":1727:1789  offers[offerCount] = Offer(msg.sender, msg.value, true, false) */\n      0x00\n      dup3\n      add\n      mload\n      dup2\n      0x00\n      add\n      exp(0x0100, 0x00)\n      dup2\n      sload\n      dup2\n      0xffffffffffffffffffffffffffffffffffffffff\n      mul\n      not\n      and\n      swap1\n      dup4\n      0xffffffffffffffffffffffffffffffffffffffff\n      and\n      mul\n      or\n      swap1\n      sstore\n      pop\n      0x20\n      dup3\n      add\n      mload\n      dup2\n      0x01\n      add\n      sstore\n      0x40\n      dup3\n      add\n      mload\n      dup2\n      0x02\n      add\n      exp(0x0100, 0x00)\n      dup2\n      sload\n      dup2\n      0xff\n      mul\n      not\n      and\n      swap1\n      dup4\n      iszero\n      iszero\n      mul\n      or\n      swap1\n      sstore\n      pop\n      0x60\n      dup3\n      add\n      mload\n      dup2\n      0x02\n      add\n      exp(0x0100, 0x01)\n      dup2\n      sload\n      dup2\n      0xff\n      mul\n      not\n      and\n      swap1\n      dup4\n      iszero\n      iszero\n      mul\n      or\n      swap1\n      sstore\n      pop\n      swap1\n      pop\n      pop\n        /* \"Copy_marketPlace.sol\":1824:1834  msg.sender */\n      caller\n        /* \"Copy_marketPlace.sol\":1804:1846  OfferPlaced(itemId, msg.sender, msg.value) */\n      0xffffffffffffffffffffffffffffffffffffffff\n      and\n        /* \"Copy_marketPlace.sol\":1816:1822  itemId */\n      dup5\n        /* \"Copy_marketPlace.sol\":1804:1846  OfferPlaced(itemId, msg.sender, msg.value) */\n      0xd294afec9d7ab02d1bc3b945a2e833190e9ac8c221c99a27a16afab5cf59e928\n        /* \"Copy_marketPlace.sol\":1836:1845  msg.value */\n      callvalue\n        /* \"Copy_marketPlace.sol\":1804:1846  OfferPlaced(itemId, msg.sender, msg.value) */\n      mload(0x40)\n      tag_88\n      swap2\n      swap1\n      tag_14\n      jump\t// in\n    tag_88:\n      mload(0x40)\n      dup1\n      swap2\n      sub\n      swap1\n      log3\n        /* \"Copy_marketPlace.sol\":1863:1873  offerCount */\n      sload(0x03)\n        /* \"Copy_marketPlace.sol\":1856:1873  return offerCount */\n      swap3\n      pop\n        /* \"Copy_marketPlace.sol\":857:858  _ */\n      pop\n        /* \"Copy_marketPlace.sol\":1588:1880  function makeOffer(uint256 itemId) public payable itemExists(itemId) itemNotSold(itemId) returns (uint256) {... */\n      pop\n      swap2\n      swap1\n      pop\n      jump\t// out\n        /* \"Copy_marketPlace.sol\":313:350  mapping(uint256 => Item) public items */\n    tag_43:\n      mstore(0x20, 0x00)\n      dup1\n      0x00\n      mstore\n      keccak256(0x00, 0x40)\n      0x00\n      swap2\n      pop\n      swap1\n      pop\n      dup1\n      0x00\n      add\n      0x00\n      swap1\n      sload\n      swap1\n      0x0100\n      exp\n      swap1\n      div\n      0xffffffffffffffffffffffffffffffffffffffff\n      and\n      swap1\n      dup1\n      0x01\n      add\n      sload\n      swap1\n      dup1\n      0x02\n      add\n      0x00\n      swap1\n      sload\n      swap1\n      0x0100\n      exp\n      swap1\n      div\n      0xff\n      and\n      swap1\n      dup1\n      0x02\n      add\n      0x01\n      swap1\n      sload\n      swap1\n      0x0100\n      exp\n      swap1\n      div\n      0xff\n      and\n      swap1\n      pop\n      dup5\n      jump\t// out\n        /* \"#utility.yul\":7:84   */\n    tag_89:\n        /* \"#utility.yul\":44:51   */\n      0x00\n        /* \"#utility.yul\":73:78   */\n      dup2\n        /* \"#utility.yul\":62:78   */\n      swap1\n      pop\n        /* \"#utility.yul\":7:84   */\n      swap2\n      swap1\n      pop\n      jump\t// out\n        /* \"#utility.yul\":90:208   */\n    tag_90:\n        /* \"#utility.yul\":177:201   */\n      tag_118\n        /* \"#utility.yul\":195:200   */\n      dup2\n        /* \"#utility.yul\":177:201   */\n      tag_89\n      jump\t// in\n    tag_118:\n        /* \"#utility.yul\":172:175   */\n      dup3\n        /* \"#utility.yul\":165:202   */\n      mstore\n        /* \"#utility.yul\":90:208   */\n      pop\n      pop\n      jump\t// out\n        /* \"#utility.yul\":214:436   */\n    tag_14:\n        /* \"#utility.yul\":307:311   */\n      0x00\n        /* \"#utility.yul\":345:347   */\n      0x20\n        /* \"#utility.yul\":334:343   */\n      dup3\n        /* \"#utility.yul\":330:348   */\n      add\n        /* \"#utility.yul\":322:348   */\n      swap1\n      pop\n        /* \"#utility.yul\":358:429   */\n      tag_120\n        /* \"#utility.yul\":426:427   */\n      0x00\n        /* \"#utility.yul\":415:424   */\n      dup4\n        /* \"#utility.yul\":411:428   */\n      add\n        /* \"#utility.yul\":402:408   */\n      dup5\n        /* \"#utility.yul\":358:429   */\n      tag_90\n      jump\t// in\n    tag_120:\n        /* \"#utility.yul\":214:436   */\n      swap3\n      swap2\n      pop\n      pop\n      jump\t// out\n        /* \"#utility.yul\":523:640   */\n    tag_92:\n        /* \"#utility.yul\":632:633   */\n      0x00\n        /* \"#utility.yul\":629:630   */\n      dup1\n        /* \"#utility.yul\":622:634   */\n      revert\n        /* \"#utility.yul\":769:891   */\n    tag_94:\n        /* \"#utility.yul\":842:866   */\n      tag_125\n        /* \"#utility.yul\":860:865   */\n      dup2\n        /* \"#utility.yul\":842:866   */\n      tag_89\n      jump\t// in\n    tag_125:\n        /* \"#utility.yul\":835:840   */\n      dup2\n        /* \"#utility.yul\":832:867   */\n      eq\n        /* \"#utility.yul\":822:885   */\n      tag_126\n      jumpi\n        /* \"#utility.yul\":881:882   */\n      0x00\n        /* \"#utility.yul\":878:879   */\n      dup1\n        /* \"#utility.yul\":871:883   */\n      revert\n        /* \"#utility.yul\":822:885   */\n    tag_126:\n        /* \"#utility.yul\":769:891   */\n      pop\n      jump\t// out\n        /* \"#utility.yul\":897:1036   */\n    tag_95:\n        /* \"#utility.yul\":943:948   */\n      0x00\n        /* \"#utility.yul\":981:987   */\n      dup2\n        /* \"#utility.yul\":968:988   */\n      calldataload\n        /* \"#utility.yul\":959:988   */\n      swap1\n      pop\n        /* \"#utility.yul\":997:1030   */\n      tag_128\n        /* \"#utility.yul\":1024:1029   */\n      dup2\n        /* \"#utility.yul\":997:1030   */\n      tag_94\n      jump\t// in\n    tag_128:\n        /* \"#utility.yul\":897:1036   */\n      swap3\n      swap2\n      pop\n      pop\n      jump\t// out\n        /* \"#utility.yul\":1042:1371   */\n    tag_18:\n        /* \"#utility.yul\":1101:1107   */\n      0x00\n        /* \"#utility.yul\":1150:1152   */\n      0x20\n        /* \"#utility.yul\":1138:1147   */\n      dup3\n        /* \"#utility.yul\":1129:1136   */\n      dup5\n        /* \"#utility.yul\":1125:1148   */\n      sub\n        /* \"#utility.yul\":1121:1153   */\n      slt\n        /* \"#utility.yul\":1118:1237   */\n      iszero\n      tag_130\n      jumpi\n        /* \"#utility.yul\":1156:1235   */\n      tag_131\n      tag_92\n      jump\t// in\n    tag_131:\n        /* \"#utility.yul\":1118:1237   */\n    tag_130:\n        /* \"#utility.yul\":1276:1277   */\n      0x00\n        /* \"#utility.yul\":1301:1354   */\n      tag_132\n        /* \"#utility.yul\":1346:1353   */\n      dup5\n        /* \"#utility.yul\":1337:1343   */\n      dup3\n        /* \"#utility.yul\":1326:1335   */\n      dup6\n        /* \"#utility.yul\":1322:1344   */\n      add\n        /* \"#utility.yul\":1301:1354   */\n      tag_95\n      jump\t// in\n    tag_132:\n        /* \"#utility.yul\":1291:1354   */\n      swap2\n      pop\n        /* \"#utility.yul\":1247:1364   */\n      pop\n        /* \"#utility.yul\":1042:1371   */\n      swap3\n      swap2\n      pop\n      pop\n      jump\t// out\n        /* \"#utility.yul\":1377:1851   */\n    tag_28:\n        /* \"#utility.yul\":1445:1451   */\n      0x00\n        /* \"#utility.yul\":1453:1459   */\n      dup1\n        /* \"#utility.yul\":1502:1504   */\n      0x40\n        /* \"#utility.yul\":1490:1499   */\n      dup4\n        /* \"#utility.yul\":1481:1488   */\n      dup6\n        /* \"#utility.yul\":1477:1500   */\n      sub\n        /* \"#utility.yul\":1473:1505   */\n      slt\n        /* \"#utility.yul\":1470:1589   */\n      iszero\n      tag_134\n      jumpi\n        /* \"#utility.yul\":1508:1587   */\n      tag_135\n      tag_92\n      jump\t// in\n    tag_135:\n        /* \"#utility.yul\":1470:1589   */\n    tag_134:\n        /* \"#utility.yul\":1628:1629   */\n      0x00\n        /* \"#utility.yul\":1653:1706   */\n      tag_136\n        /* \"#utility.yul\":1698:1705   */\n      dup6\n        /* \"#utility.yul\":1689:1695   */\n      dup3\n        /* \"#utility.yul\":1678:1687   */\n      dup7\n        /* \"#utility.yul\":1674:1696   */\n      add\n        /* \"#utility.yul\":1653:1706   */\n      tag_95\n      jump\t// in\n    tag_136:\n        /* \"#utility.yul\":1643:1706   */\n      swap3\n      pop\n        /* \"#utility.yul\":1599:1716   */\n      pop\n        /* \"#utility.yul\":1755:1757   */\n      0x20\n        /* \"#utility.yul\":1781:1834   */\n      tag_137\n        /* \"#utility.yul\":1826:1833   */\n      dup6\n        /* \"#utility.yul\":1817:1823   */\n      dup3\n        /* \"#utility.yul\":1806:1815   */\n      dup7\n        /* \"#utility.yul\":1802:1824   */\n      add\n        /* \"#utility.yul\":1781:1834   */\n      tag_95\n      jump\t// in\n    tag_137:\n        /* \"#utility.yul\":1771:1834   */\n      swap2\n      pop\n        /* \"#utility.yul\":1726:1844   */\n      pop\n        /* \"#utility.yul\":1377:1851   */\n      swap3\n      pop\n      swap3\n      swap1\n      pop\n      jump\t// out\n        /* \"#utility.yul\":1857:1983   */\n    tag_96:\n        /* \"#utility.yul\":1894:1901   */\n      0x00\n        /* \"#utility.yul\":1934:1976   */\n      0xffffffffffffffffffffffffffffffffffffffff\n        /* \"#utility.yul\":1927:1932   */\n      dup3\n        /* \"#utility.yul\":1923:1977   */\n      and\n        /* \"#utility.yul\":1912:1977   */\n      swap1\n      pop\n        /* \"#utility.yul\":1857:1983   */\n      swap2\n      swap1\n      pop\n      jump\t// out\n        /* \"#utility.yul\":1989:2085   */\n    tag_97:\n        /* \"#utility.yul\":2026:2033   */\n      0x00\n        /* \"#utility.yul\":2055:2079   */\n      tag_140\n        /* \"#utility.yul\":2073:2078   */\n      dup3\n        /* \"#utility.yul\":2055:2079   */\n      tag_96\n      jump\t// in\n    tag_140:\n        /* \"#utility.yul\":2044:2079   */\n      swap1\n      pop\n        /* \"#utility.yul\":1989:2085   */\n      swap2\n      swap1\n      pop\n      jump\t// out\n        /* \"#utility.yul\":2091:2209   */\n    tag_98:\n        /* \"#utility.yul\":2178:2202   */\n      tag_142\n        /* \"#utility.yul\":2196:2201   */\n      dup2\n        /* \"#utility.yul\":2178:2202   */\n      tag_97\n      jump\t// in\n    tag_142:\n        /* \"#utility.yul\":2173:2176   */\n      dup3\n        /* \"#utility.yul\":2166:2203   */\n      mstore\n        /* \"#utility.yul\":2091:2209   */\n      pop\n      pop\n      jump\t// out\n        /* \"#utility.yul\":2215:2305   */\n    tag_99:\n        /* \"#utility.yul\":2249:2256   */\n      0x00\n        /* \"#utility.yul\":2292:2297   */\n      dup2\n        /* \"#utility.yul\":2285:2298   */\n      iszero\n        /* \"#utility.yul\":2278:2299   */\n      iszero\n        /* \"#utility.yul\":2267:2299   */\n      swap1\n      pop\n        /* \"#utility.yul\":2215:2305   */\n      swap2\n      swap1\n      pop\n      jump\t// out\n        /* \"#utility.yul\":2311:2420   */\n    tag_100:\n        /* \"#utility.yul\":2392:2413   */\n      tag_145\n        /* \"#utility.yul\":2407:2412   */\n      dup2\n        /* \"#utility.yul\":2392:2413   */\n      tag_99\n      jump\t// in\n    tag_145:\n        /* \"#utility.yul\":2387:2390   */\n      dup3\n        /* \"#utility.yul\":2380:2414   */\n      mstore\n        /* \"#utility.yul\":2311:2420   */\n      pop\n      pop\n      jump\t// out\n        /* \"#utility.yul\":2426:2955   */\n    tag_35:\n        /* \"#utility.yul\":2591:2595   */\n      0x00\n        /* \"#utility.yul\":2629:2632   */\n      0x80\n        /* \"#utility.yul\":2618:2627   */\n      dup3\n        /* \"#utility.yul\":2614:2633   */\n      add\n        /* \"#utility.yul\":2606:2633   */\n      swap1\n      pop\n        /* \"#utility.yul\":2643:2714   */\n      tag_147\n        /* \"#utility.yul\":2711:2712   */\n      0x00\n        /* \"#utility.yul\":2700:2709   */\n      dup4\n        /* \"#utility.yul\":2696:2713   */\n      add\n        /* \"#utility.yul\":2687:2693   */\n      dup8\n        /* \"#utility.yul\":2643:2714   */\n      tag_98\n      jump\t// in\n    tag_147:\n        /* \"#utility.yul\":2724:2796   */\n      tag_148\n        /* \"#utility.yul\":2792:2794   */\n      0x20\n        /* \"#utility.yul\":2781:2790   */\n      dup4\n        /* \"#utility.yul\":2777:2795   */\n      add\n        /* \"#utility.yul\":2768:2774   */\n      dup7\n        /* \"#utility.yul\":2724:2796   */\n      tag_90\n      jump\t// in\n    tag_148:\n        /* \"#utility.yul\":2806:2872   */\n      tag_149\n        /* \"#utility.yul\":2868:2870   */\n      0x40\n        /* \"#utility.yul\":2857:2866   */\n      dup4\n        /* \"#utility.yul\":2853:2871   */\n      add\n        /* \"#utility.yul\":2844:2850   */\n      dup6\n        /* \"#utility.yul\":2806:2872   */\n      tag_100\n      jump\t// in\n    tag_149:\n        /* \"#utility.yul\":2882:2948   */\n      tag_150\n        /* \"#utility.yul\":2944:2946   */\n      0x60\n        /* \"#utility.yul\":2933:2942   */\n      dup4\n        /* \"#utility.yul\":2929:2947   */\n      add\n        /* \"#utility.yul\":2920:2926   */\n      dup5\n        /* \"#utility.yul\":2882:2948   */\n      tag_100\n      jump\t// in\n    tag_150:\n        /* \"#utility.yul\":2426:2955   */\n      swap6\n      swap5\n      pop\n      pop\n      pop\n      pop\n      pop\n      jump\t// out\n        /* \"#utility.yul\":2961:3141   */\n    tag_101:\n        /* \"#utility.yul\":3009:3086   */\n      0x4e487b7100000000000000000000000000000000000000000000000000000000\n        /* \"#utility.yul\":3006:3007   */\n      0x00\n        /* \"#utility.yul\":2999:3087   */\n      mstore\n        /* \"#utility.yul\":3106:3110   */\n      0x11\n        /* \"#utility.yul\":3103:3104   */\n      0x04\n        /* \"#utility.yul\":3096:3111   */\n      mstore\n        /* \"#utility.yul\":3130:3134   */\n      0x24\n        /* \"#utility.yul\":3127:3128   */\n      0x00\n        /* \"#utility.yul\":3120:3135   */\n      revert\n        /* \"#utility.yul\":3147:3380   */\n    tag_47:\n        /* \"#utility.yul\":3186:3189   */\n      0x00\n        /* \"#utility.yul\":3209:3233   */\n      tag_153\n        /* \"#utility.yul\":3227:3232   */\n      dup3\n        /* \"#utility.yul\":3209:3233   */\n      tag_89\n      jump\t// in\n    tag_153:\n        /* \"#utility.yul\":3200:3233   */\n      swap2\n      pop\n        /* \"#utility.yul\":3255:3321   */\n      0xffffffffffffffffffffffffffffffffffffffffffffffffffffffffffffffff\n        /* \"#utility.yul\":3248:3253   */\n      dup3\n        /* \"#utility.yul\":3245:3322   */\n      sub\n        /* \"#utility.yul\":3242:3345   */\n      tag_154\n      jumpi\n        /* \"#utility.yul\":3325:3343   */\n      tag_155\n      tag_101\n      jump\t// in\n    tag_155:\n        /* \"#utility.yul\":3242:3345   */\n    tag_154:\n        /* \"#utility.yul\":3372:3373   */\n      0x01\n        /* \"#utility.yul\":3365:3370   */\n      dup3\n        /* \"#utility.yul\":3361:3374   */\n      add\n        /* \"#utility.yul\":3354:3374   */\n      swap1\n      pop\n        /* \"#utility.yul\":3147:3380   */\n      swap2\n      swap1\n      pop\n      jump\t// out\n        /* \"#utility.yul\":3386:3555   */\n    tag_102:\n        /* \"#utility.yul\":3470:3481   */\n      0x00\n        /* \"#utility.yul\":3504:3510   */\n      dup3\n        /* \"#utility.yul\":3499:3502   */\n      dup3\n        /* \"#utility.yul\":3492:3511   */\n      mstore\n        /* \"#utility.yul\":3544:3548   */\n      0x20\n        /* \"#utility.yul\":3539:3542   */\n      dup3\n        /* \"#utility.yul\":3535:3549   */\n      add\n        /* \"#utility.yul\":3520:3549   */\n      swap1\n      pop\n        /* \"#utility.yul\":3386:3555   */\n      swap3\n      swap2\n      pop\n      pop\n      jump\t// out\n        /* \"#utility.yul\":3561:3731   */\n    tag_103:\n        /* \"#utility.yul\":3701:3723   */\n      0x4974656d20646f6573206e6f742065786973742e000000000000000000000000\n        /* \"#utility.yul\":3697:3698   */\n      0x00\n        /* \"#utility.yul\":3689:3695   */\n      dup3\n        /* \"#utility.yul\":3685:3699   */\n      add\n        /* \"#utility.yul\":3678:3724   */\n      mstore\n        /* \"#utility.yul\":3561:3731   */\n      pop\n      jump\t// out\n        /* \"#utility.yul\":3737:4103   */\n    tag_104:\n        /* \"#utility.yul\":3879:3882   */\n      0x00\n        /* \"#utility.yul\":3900:3967   */\n      tag_159\n        /* \"#utility.yul\":3964:3966   */\n      0x14\n        /* \"#utility.yul\":3959:3962   */\n      dup4\n        /* \"#utility.yul\":3900:3967   */\n      tag_102\n      jump\t// in\n    tag_159:\n        /* \"#utility.yul\":3893:3967   */\n      swap2\n      pop\n        /* \"#utility.yul\":3976:4069   */\n      tag_160\n        /* \"#utility.yul\":4065:4068   */\n      dup3\n        /* \"#utility.yul\":3976:4069   */\n      tag_103\n      jump\t// in\n    tag_160:\n        /* \"#utility.yul\":4094:4096   */\n      0x20\n        /* \"#utility.yul\":4089:4092   */\n      dup3\n        /* \"#utility.yul\":4085:4097   */\n      add\n        /* \"#utility.yul\":4078:4097   */\n      swap1\n      pop\n        /* \"#utility.yul\":3737:4103   */\n      swap2\n      swap1\n      pop\n      jump\t// out\n        /* \"#utility.yul\":4109:4528   */\n    tag_52:\n        /* \"#utility.yul\":4275:4279   */\n      0x00\n        /* \"#utility.yul\":4313:4315   */\n      0x20\n        /* \"#utility.yul\":4302:4311   */\n      dup3\n        /* \"#utility.yul\":4298:4316   */\n      add\n        /* \"#utility.yul\":4290:4316   */\n      swap1\n      pop\n        /* \"#utility.yul\":4362:4371   */\n      dup2\n        /* \"#utility.yul\":4356:4360   */\n      dup2\n        /* \"#utility.yul\":4352:4372   */\n      sub\n        /* \"#utility.yul\":4348:4349   */\n      0x00\n        /* \"#utility.yul\":4337:4346   */\n      dup4\n        /* \"#utility.yul\":4333:4350   */\n      add\n        /* \"#utility.yul\":4326:4373   */\n      mstore\n        /* \"#utility.yul\":4390:4521   */\n      tag_162\n        /* \"#utility.yul\":4516:4520   */\n      dup2\n        /* \"#utility.yul\":4390:4521   */\n      tag_104\n      jump\t// in\n    tag_162:\n        /* \"#utility.yul\":4382:4521   */\n      swap1\n      pop\n        /* \"#utility.yul\":4109:4528   */\n      swap2\n      swap1\n      pop\n      jump\t// out\n        /* \"#utility.yul\":4534:4711   */\n    tag_105:\n        /* \"#utility.yul\":4674:4703   */\n      0x4974656d2068617320616c7265616479206265656e20736f6c642e0000000000\n        /* \"#utility.yul\":4670:4671   */\n      0x00\n        /* \"#utility.yul\":4662:4668   */\n      dup3\n        /* \"#utility.yul\":4658:4672   */\n      add\n        /* \"#utility.yul\":4651:4704   */\n      mstore\n        /* \"#utility.yul\":4534:4711   */\n      pop\n      jump\t// out\n        /* \"#utility.yul\":4717:5083   */\n    tag_106:\n        /* \"#utility.yul\":4859:4862   */\n      0x00\n        /* \"#utility.yul\":4880:4947   */\n      tag_165\n        /* \"#utility.yul\":4944:4946   */\n      0x1b\n        /* \"#utility.yul\":4939:4942   */\n      dup4\n        /* \"#utility.yul\":4880:4947   */\n      tag_102\n      jump\t// in\n    tag_165:\n        /* \"#utility.yul\":4873:4947   */\n      swap2\n      pop\n        /* \"#utility.yul\":4956:5049   */\n      tag_166\n        /* \"#utility.yul\":5045:5048   */\n      dup3\n        /* \"#utility.yul\":4956:5049   */\n      tag_105\n      jump\t// in\n    tag_166:\n        /* \"#utility.yul\":5074:5076   */\n      0x20\n        /* \"#utility.yul\":5069:5072   */\n      dup3\n        /* \"#utility.yul\":5065:5077   */\n      add\n        /* \"#utility.yul\":5058:5077   */\n      swap1\n      pop\n        /* \"#utility.yul\":4717:5083   */\n      swap2\n      swap1\n      pop\n      jump\t// out\n        /* \"#utility.yul\":5089:5508   */\n    tag_56:\n        /* \"#utility.yul\":5255:5259   */\n      0x00\n        /* \"#utility.yul\":5293:5295   */\n      0x20\n        /* \"#utility.yul\":5282:5291   */\n      dup3\n        /* \"#utility.yul\":5278:5296   */\n      add\n        /* \"#utility.yul\":5270:5296   */\n      swap1\n      pop\n        /* \"#utility.yul\":5342:5351   */\n      dup2\n        /* \"#utility.yul\":5336:5340   */\n      dup2\n        /* \"#utility.yul\":5332:5352   */\n      sub\n        /* \"#utility.yul\":5328:5329   */\n      0x00\n        /* \"#utility.yul\":5317:5326   */\n      dup4\n        /* \"#utility.yul\":5313:5330   */\n      add\n        /* \"#utility.yul\":5306:5353   */\n      mstore\n        /* \"#utility.yul\":5370:5501   */\n      tag_168\n        /* \"#utility.yul\":5496:5500   */\n      dup2\n        /* \"#utility.yul\":5370:5501   */\n      tag_106\n      jump\t// in\n    tag_168:\n        /* \"#utility.yul\":5362:5501   */\n      swap1\n      pop\n        /* \"#utility.yul\":5089:5508   */\n      swap2\n      swap1\n      pop\n      jump\t// out\n        /* \"#utility.yul\":5514:5685   */\n    tag_107:\n        /* \"#utility.yul\":5654:5677   */\n      0x4f6666657220646f6573206e6f742065786973742e0000000000000000000000\n        /* \"#utility.yul\":5650:5651   */\n      0x00\n        /* \"#utility.yul\":5642:5648   */\n      dup3\n        /* \"#utility.yul\":5638:5652   */\n      add\n        /* \"#utility.yul\":5631:5678   */\n      mstore\n        /* \"#utility.yul\":5514:5685   */\n      pop\n      jump\t// out\n        /* \"#utility.yul\":5691:6057   */\n    tag_108:\n        /* \"#utility.yul\":5833:5836   */\n      0x00\n        /* \"#utility.yul\":5854:5921   */\n      tag_171\n        /* \"#utility.yul\":5918:5920   */\n      0x15\n        /* \"#utility.yul\":5913:5916   */\n      dup4\n        /* \"#utility.yul\":5854:5921   */\n      tag_102\n      jump\t// in\n    tag_171:\n        /* \"#utility.yul\":5847:5921   */\n      swap2\n      pop\n        /* \"#utility.yul\":5930:6023   */\n      tag_172\n        /* \"#utility.yul\":6019:6022   */\n      dup3\n        /* \"#utility.yul\":5930:6023   */\n      tag_107\n      jump\t// in\n    tag_172:\n        /* \"#utility.yul\":6048:6050   */\n      0x20\n        /* \"#utility.yul\":6043:6046   */\n      dup3\n        /* \"#utility.yul\":6039:6051   */\n      add\n        /* \"#utility.yul\":6032:6051   */\n      swap1\n      pop\n        /* \"#utility.yul\":5691:6057   */\n      swap2\n      swap1\n      pop\n      jump\t// out\n        /* \"#utility.yul\":6063:6482   */\n    tag_60:\n        /* \"#utility.yul\":6229:6233   */\n      0x00\n        /* \"#utility.yul\":6267:6269   */\n      0x20\n        /* \"#utility.yul\":6256:6265   */\n      dup3\n        /* \"#utility.yul\":6252:6270   */\n      add\n        /* \"#utility.yul\":6244:6270   */\n      swap1\n      pop\n        /* \"#utility.yul\":6316:6325   */\n      dup2\n        /* \"#utility.yul\":6310:6314   */\n      dup2\n        /* \"#utility.yul\":6306:6326   */\n      sub\n        /* \"#utility.yul\":6302:6303   */\n      0x00\n        /* \"#utility.yul\":6291:6300   */\n      dup4\n        /* \"#utility.yul\":6287:6304   */\n      add\n        /* \"#utility.yul\":6280:6327   */\n      mstore\n        /* \"#utility.yul\":6344:6475   */\n      tag_174\n        /* \"#utility.yul\":6470:6474   */\n      dup2\n        /* \"#utility.yul\":6344:6475   */\n      tag_108\n      jump\t// in\n    tag_174:\n        /* \"#utility.yul\":6336:6475   */\n      swap1\n      pop\n        /* \"#utility.yul\":6063:6482   */\n      swap2\n      swap1\n      pop\n      jump\t// out\n        /* \"#utility.yul\":6488:6670   */\n    tag_109:\n        /* \"#utility.yul\":6628:6662   */\n      0x4f666665722068617320616c7265616479206265656e2061636365707465642e\n        /* \"#utility.yul\":6624:6625   */\n      0x00\n        /* \"#utility.yul\":6616:6622   */\n      dup3\n        /* \"#utility.yul\":6612:6626   */\n      add\n        /* \"#utility.yul\":6605:6663   */\n      mstore\n        /* \"#utility.yul\":6488:6670   */\n      pop\n      jump\t// out\n        /* \"#utility.yul\":6676:7042   */\n    tag_110:\n        /* \"#utility.yul\":6818:6821   */\n      0x00\n        /* \"#utility.yul\":6839:6906   */\n      tag_177\n        /* \"#utility.yul\":6903:6905   */\n      0x20\n        /* \"#utility.yul\":6898:6901   */\n      dup4\n        /* \"#utility.yul\":6839:6906   */\n      tag_102\n      jump\t// in\n    tag_177:\n        /* \"#utility.yul\":6832:6906   */\n      swap2\n      pop\n        /* \"#utility.yul\":6915:7008   */\n      tag_178\n        /* \"#utility.yul\":7004:7007   */\n      dup3\n        /* \"#utility.yul\":6915:7008   */\n      tag_109\n      jump\t// in\n    tag_178:\n        /* \"#utility.yul\":7033:7035   */\n      0x20\n        /* \"#utility.yul\":7028:7031   */\n      dup3\n        /* \"#utility.yul\":7024:7036   */\n      add\n        /* \"#utility.yul\":7017:7036   */\n      swap1\n      pop\n        /* \"#utility.yul\":6676:7042   */\n      swap2\n      swap1\n      pop\n      jump\t// out\n        /* \"#utility.yul\":7048:7467   */\n    tag_64:\n        /* \"#utility.yul\":7214:7218   */\n      0x00\n        /* \"#utility.yul\":7252:7254   */\n      0x20\n        /* \"#utility.yul\":7241:7250   */\n      dup3\n        /* \"#utility.yul\":7237:7255   */\n      add\n        /* \"#utility.yul\":7229:7255   */\n      swap1\n      pop\n        /* \"#utility.yul\":7301:7310   */\n      dup2\n        /* \"#utility.yul\":7295:7299   */\n      dup2\n        /* \"#utility.yul\":7291:7311   */\n      sub\n        /* \"#utility.yul\":7287:7288   */\n      0x00\n        /* \"#utility.yul\":7276:7285   */\n      dup4\n        /* \"#utility.yul\":7272:7289   */\n      add\n        /* \"#utility.yul\":7265:7312   */\n      mstore\n        /* \"#utility.yul\":7329:7460   */\n      tag_180\n        /* \"#utility.yul\":7455:7459   */\n      dup2\n        /* \"#utility.yul\":7329:7460   */\n      tag_110\n      jump\t// in\n    tag_180:\n        /* \"#utility.yul\":7321:7460   */\n      swap1\n      pop\n        /* \"#utility.yul\":7048:7467   */\n      swap2\n      swap1\n      pop\n      jump\t// out\n        /* \"#utility.yul\":7473:7697   */\n    tag_111:\n        /* \"#utility.yul\":7613:7647   */\n      0x4f6e6c79207468652073656c6c65722063616e2061636365707420746865206f\n        /* \"#utility.yul\":7609:7610   */\n      0x00\n        /* \"#utility.yul\":7601:7607   */\n      dup3\n        /* \"#utility.yul\":7597:7611   */\n      add\n        /* \"#utility.yul\":7590:7648   */\n      mstore\n        /* \"#utility.yul\":7682:7689   */\n      0x666665722e000000000000000000000000000000000000000000000000000000\n        /* \"#utility.yul\":7677:7679   */\n      0x20\n        /* \"#utility.yul\":7669:7675   */\n      dup3\n        /* \"#utility.yul\":7665:7680   */\n      add\n        /* \"#utility.yul\":7658:7690   */\n      mstore\n        /* \"#utility.yul\":7473:7697   */\n      pop\n      jump\t// out\n        /* \"#utility.yul\":7703:8069   */\n    tag_112:\n        /* \"#utility.yul\":7845:7848   */\n      0x00\n        /* \"#utility.yul\":7866:7933   */\n      tag_183\n        /* \"#utility.yul\":7930:7932   */\n      0x25\n        /* \"#utility.yul\":7925:7928   */\n      dup4\n        /* \"#utility.yul\":7866:7933   */\n      tag_102\n      jump\t// in\n    tag_183:\n        /* \"#utility.yul\":7859:7933   */\n      swap2\n      pop\n        /* \"#utility.yul\":7942:8035   */\n      tag_184\n        /* \"#utility.yul\":8031:8034   */\n      dup3\n        /* \"#utility.yul\":7942:8035   */\n      tag_111\n      jump\t// in\n    tag_184:\n        /* \"#utility.yul\":8060:8062   */\n      0x40\n        /* \"#utility.yul\":8055:8058   */\n      dup3\n        /* \"#utility.yul\":8051:8063   */\n      add\n        /* \"#utility.yul\":8044:8063   */\n      swap1\n      pop\n        /* \"#utility.yul\":7703:8069   */\n      swap2\n      swap1\n      pop\n      jump\t// out\n        /* \"#utility.yul\":8075:8494   */\n    tag_68:\n        /* \"#utility.yul\":8241:8245   */\n      0x00\n        /* \"#utility.yul\":8279:8281   */\n      0x20\n        /* \"#utility.yul\":8268:8277   */\n      dup3\n        /* \"#utility.yul\":8264:8282   */\n      add\n        /* \"#utility.yul\":8256:8282   */\n      swap1\n      pop\n        /* \"#utility.yul\":8328:8337   */\n      dup2\n        /* \"#utility.yul\":8322:8326   */\n      dup2\n        /* \"#utility.yul\":8318:8338   */\n      sub\n        /* \"#utility.yul\":8314:8315   */\n      0x00\n        /* \"#utility.yul\":8303:8312   */\n      dup4\n        /* \"#utility.yul\":8299:8316   */\n      add\n        /* \"#utility.yul\":8292:8339   */\n      mstore\n        /* \"#utility.yul\":8356:8487   */\n      tag_186\n        /* \"#utility.yul\":8482:8486   */\n      dup2\n        /* \"#utility.yul\":8356:8487   */\n      tag_112\n      jump\t// in\n    tag_186:\n        /* \"#utility.yul\":8348:8487   */\n      swap1\n      pop\n        /* \"#utility.yul\":8075:8494   */\n      swap2\n      swap1\n      pop\n      jump\t// out\n        /* \"#utility.yul\":8500:8674   */\n    tag_113:\n        /* \"#utility.yul\":8640:8666   */\n      0x4f6666657220616d6f756e7420697320746f6f206c6f772e0000000000000000\n        /* \"#utility.yul\":8636:8637   */\n      0x00\n        /* \"#utility.yul\":8628:8634   */\n      dup3\n        /* \"#utility.yul\":8624:8638   */\n      add\n        /* \"#utility.yul\":8617:8667   */\n      mstore\n        /* \"#utility.yul\":8500:8674   */\n      pop\n      jump\t// out\n        /* \"#utility.yul\":8680:9046   */\n    tag_114:\n        /* \"#utility.yul\":8822:8825   */\n      0x00\n        /* \"#utility.yul\":8843:8910   */\n      tag_189\n        /* \"#utility.yul\":8907:8909   */\n      0x18\n        /* \"#utility.yul\":8902:8905   */\n      dup4\n        /* \"#utility.yul\":8843:8910   */\n      tag_102\n      jump\t// in\n    tag_189:\n        /* \"#utility.yul\":8836:8910   */\n      swap2\n      pop\n        /* \"#utility.yul\":8919:9012   */\n      tag_190\n        /* \"#utility.yul\":9008:9011   */\n      dup3\n        /* \"#utility.yul\":8919:9012   */\n      tag_113\n      jump\t// in\n    tag_190:\n        /* \"#utility.yul\":9037:9039   */\n      0x20\n        /* \"#utility.yul\":9032:9035   */\n      dup3\n        /* \"#utility.yul\":9028:9040   */\n      add\n        /* \"#utility.yul\":9021:9040   */\n      swap1\n      pop\n        /* \"#utility.yul\":8680:9046   */\n      swap2\n      swap1\n      pop\n      jump\t// out\n        /* \"#utility.yul\":9052:9471   */\n    tag_71:\n        /* \"#utility.yul\":9218:9222   */\n      0x00\n        /* \"#utility.yul\":9256:9258   */\n      0x20\n        /* \"#utility.yul\":9245:9254   */\n      dup3\n        /* \"#utility.yul\":9241:9259   */\n      add\n        /* \"#utility.yul\":9233:9259   */\n      swap1\n      pop\n        /* \"#utility.yul\":9305:9314   */\n      dup2\n        /* \"#utility.yul\":9299:9303   */\n      dup2\n        /* \"#utility.yul\":9295:9315   */\n      sub\n        /* \"#utility.yul\":9291:9292   */\n      0x00\n        /* \"#utility.yul\":9280:9289   */\n      dup4\n        /* \"#utility.yul\":9276:9293   */\n      add\n        /* \"#utility.yul\":9269:9316   */\n      mstore\n        /* \"#utility.yul\":9333:9464   */\n      tag_192\n        /* \"#utility.yul\":9459:9463   */\n      dup2\n        /* \"#utility.yul\":9333:9464   */\n      tag_114\n      jump\t// in\n    tag_192:\n        /* \"#utility.yul\":9325:9464   */\n      swap1\n      pop\n        /* \"#utility.yul\":9052:9471   */\n      swap2\n      swap1\n      pop\n      jump\t// out\n        /* \"#utility.yul\":9477:9671   */\n    tag_76:\n        /* \"#utility.yul\":9517:9521   */\n      0x00\n        /* \"#utility.yul\":9537:9557   */\n      tag_194\n        /* \"#utility.yul\":9555:9556   */\n      dup3\n        /* \"#utility.yul\":9537:9557   */\n      tag_89\n      jump\t// in\n    tag_194:\n        /* \"#utility.yul\":9532:9557   */\n      swap2\n      pop\n        /* \"#utility.yul\":9571:9591   */\n      tag_195\n        /* \"#utility.yul\":9589:9590   */\n      dup4\n        /* \"#utility.yul\":9571:9591   */\n      tag_89\n      jump\t// in\n    tag_195:\n        /* \"#utility.yul\":9566:9591   */\n      swap3\n      pop\n        /* \"#utility.yul\":9615:9616   */\n      dup3\n        /* \"#utility.yul\":9612:9613   */\n      dup3\n        /* \"#utility.yul\":9608:9617   */\n      sub\n        /* \"#utility.yul\":9600:9617   */\n      swap1\n      pop\n        /* \"#utility.yul\":9639:9640   */\n      dup2\n        /* \"#utility.yul\":9633:9637   */\n      dup2\n        /* \"#utility.yul\":9630:9641   */\n      gt\n        /* \"#utility.yul\":9627:9664   */\n      iszero\n      tag_196\n      jumpi\n        /* \"#utility.yul\":9644:9662   */\n      tag_197\n      tag_101\n      jump\t// in\n    tag_197:\n        /* \"#utility.yul\":9627:9664   */\n    tag_196:\n        /* \"#utility.yul\":9477:9671   */\n      swap3\n      swap2\n      pop\n      pop\n      jump\t// out\n\n    auxdata: 0xa26469706673582212204163b25bca9713d44b87d5728e0942015ae7d3f584bcabe34f3c480af087639a64736f6c63430008190033\n}\n",
				"bytecode": {
					"linkReferences": {},
					"object": "6080604052348015600e575f80fd5b505f6002819055505f60038190555061104d8061002a5f395ff3fe60806040526004361061006f575f3560e01c806381257bd51161004d57806381257bd5146101035780638a72ea6a1461012b5780639a2f64741461016a578063bfb231d21461019a5761006f565b80631115c24d146100735780632ce381901461009d5780636bfb0d01146100d9575b5f80fd5b34801561007e575f80fd5b506100876101d9565b6040516100949190610b7e565b60405180910390f35b3480156100a8575f80fd5b506100c360048036038101906100be9190610bc5565b6101df565b6040516100d09190610b7e565b60405180910390f35b3480156100e4575f80fd5b506100ed610330565b6040516100fa9190610b7e565b60405180910390f35b34801561010e575f80fd5b5061012960048036038101906101249190610bf0565b610336565b005b348015610136575f80fd5b50610151600480360381019061014c9190610bc5565b61088b565b6040516101619493929190610c87565b60405180910390f35b610184600480360381019061017f9190610bc5565b6108ef565b6040516101919190610b7e565b60405180910390f35b3480156101a5575f80fd5b506101c060048036038101906101bb9190610bc5565b610b03565b6040516101d09493929190610c87565b60405180910390f35b60035481565b5f60025f8154809291906101f290610cf7565b919050555060405180608001604052803373ffffffffffffffffffffffffffffffffffffffff1681526020018381526020016001151581526020015f15158152505f8060025481526020019081526020015f205f820151815f015f6101000a81548173ffffffffffffffffffffffffffffffffffffffff021916908373ffffffffffffffffffffffffffffffffffffffff160217905550602082015181600101556040820151816002015f6101000a81548160ff02191690831515021790555060608201518160020160016101000a81548160ff0219169083151502179055509050503373ffffffffffffffffffffffffffffffffffffffff166002547fc93edc6ee14cd6c0c2842099adfa8953b237dbdad304ba28e96dce8a7f2a828c8460405161031e9190610b7e565b60405180910390a36002549050919050565b60025481565b815f808281526020019081526020015f206002015f9054906101000a900460ff16610396576040517f08c379a000000000000000000000000000000000000000000000000000000000815260040161038d90610d98565b60405180910390fd5b825f808281526020019081526020015f2060020160019054906101000a900460ff16156103f8576040517f08c379a00000000000000000000000000000000000000000000000000000000081526004016103ef90610e00565b60405180910390fd5b8260015f8281526020019081526020015f206002015f9054906101000a900460ff16610459576040517f08c379a000000000000000000000000000000000000000000000000000000000815260040161045090610e68565b60405180910390fd5b8360015f8281526020019081526020015f2060020160019054906101000a900460ff16156104bc576040517f08c379a00000000000000000000000000000000000000000000000000000000081526004016104b390610ed0565b60405180910390fd5b3373ffffffffffffffffffffffffffffffffffffffff165f808881526020019081526020015f205f015f9054906101000a900473ffffffffffffffffffffffffffffffffffffffff1673ffffffffffffffffffffffffffffffffffffffff161461055b576040517f08c379a000000000000000000000000000000000000000000000000000000000815260040161055290610f5e565b60405180910390fd5b5f808781526020019081526020015f206001015460015f8781526020019081526020015f206001015410156105c5576040517f08c379a00000000000000000000000000000000000000000000000000000000081526004016105bc90610fc6565b60405180910390fd5b60015f808881526020019081526020015f2060020160016101000a81548160ff0219169083151502179055505f805f8881526020019081526020015f206002015f6101000a81548160ff0219169083151502179055506001805f8781526020019081526020015f2060020160016101000a81548160ff0219169083151502179055505f808781526020019081526020015f205f015f9054906101000a900473ffffffffffffffffffffffffffffffffffffffff1673ffffffffffffffffffffffffffffffffffffffff166108fc5f808981526020019081526020015f206001015490811502906040515f60405180830381858888f193505050501580156106ce573d5f803e3d5ffd5b505f808781526020019081526020015f206001015460015f8781526020019081526020015f206001015411156107a75760015f8681526020019081526020015f205f015f9054906101000a900473ffffffffffffffffffffffffffffffffffffffff1673ffffffffffffffffffffffffffffffffffffffff166108fc5f808981526020019081526020015f206001015460015f8981526020019081526020015f206001015461077d9190610fe4565b90811502906040515f60405180830381858888f193505050501580156107a5573d5f803e3d5ffd5b505b60015f8681526020019081526020015f205f015f9054906101000a900473ffffffffffffffffffffffffffffffffffffffff1673ffffffffffffffffffffffffffffffffffffffff165f808881526020019081526020015f205f015f9054906101000a900473ffffffffffffffffffffffffffffffffffffffff1673ffffffffffffffffffffffffffffffffffffffff16877fc67f49229cab3f614ad390c12432e0e671552dcfd15e24ddc005cf5a01a021355f808b81526020019081526020015f206001015460405161087b9190610b7e565b60405180910390a4505050505050565b6001602052805f5260405f205f91509050805f015f9054906101000a900473ffffffffffffffffffffffffffffffffffffffff1690806001015490806002015f9054906101000a900460ff16908060020160019054906101000a900460ff16905084565b5f815f808281526020019081526020015f206002015f9054906101000a900460ff16610950576040517f08c379a000000000000000000000000000000000000000000000000000000000815260040161094790610d98565b60405180910390fd5b825f808281526020019081526020015f2060020160019054906101000a900460ff16156109b2576040517f08c379a00000000000000000000000000000000000000000000000000000000081526004016109a990610e00565b60405180910390fd5b60035f8154809291906109c490610cf7565b919050555060405180608001604052803373ffffffffffffffffffffffffffffffffffffffff1681526020013481526020016001151581526020015f151581525060015f60035481526020019081526020015f205f820151815f015f6101000a81548173ffffffffffffffffffffffffffffffffffffffff021916908373ffffffffffffffffffffffffffffffffffffffff160217905550602082015181600101556040820151816002015f6101000a81548160ff02191690831515021790555060608201518160020160016101000a81548160ff0219169083151502179055509050503373ffffffffffffffffffffffffffffffffffffffff16847fd294afec9d7ab02d1bc3b945a2e833190e9ac8c221c99a27a16afab5cf59e92834604051610aef9190610b7e565b60405180910390a360035492505050919050565b5f602052805f5260405f205f91509050805f015f9054906101000a900473ffffffffffffffffffffffffffffffffffffffff1690806001015490806002015f9054906101000a900460ff16908060020160019054906101000a900460ff16905084565b5f819050919050565b610b7881610b66565b82525050565b5f602082019050610b915f830184610b6f565b92915050565b5f80fd5b610ba481610b66565b8114610bae575f80fd5b50565b5f81359050610bbf81610b9b565b92915050565b5f60208284031215610bda57610bd9610b97565b5b5f610be784828501610bb1565b91505092915050565b5f8060408385031215610c0657610c05610b97565b5b5f610c1385828601610bb1565b9250506020610c2485828601610bb1565b9150509250929050565b5f73ffffffffffffffffffffffffffffffffffffffff82169050919050565b5f610c5782610c2e565b9050919050565b610c6781610c4d565b82525050565b5f8115159050919050565b610c8181610c6d565b82525050565b5f608082019050610c9a5f830187610c5e565b610ca76020830186610b6f565b610cb46040830185610c78565b610cc16060830184610c78565b95945050505050565b7f4e487b71000000000000000000000000000000000000000000000000000000005f52601160045260245ffd5b5f610d0182610b66565b91507fffffffffffffffffffffffffffffffffffffffffffffffffffffffffffffffff8203610d3357610d32610cca565b5b600182019050919050565b5f82825260208201905092915050565b7f4974656d20646f6573206e6f742065786973742e0000000000000000000000005f82015250565b5f610d82601483610d3e565b9150610d8d82610d4e565b602082019050919050565b5f6020820190508181035f830152610daf81610d76565b9050919050565b7f4974656d2068617320616c7265616479206265656e20736f6c642e00000000005f82015250565b5f610dea601b83610d3e565b9150610df582610db6565b602082019050919050565b5f6020820190508181035f830152610e1781610dde565b9050919050565b7f4f6666657220646f6573206e6f742065786973742e00000000000000000000005f82015250565b5f610e52601583610d3e565b9150610e5d82610e1e565b602082019050919050565b5f6020820190508181035f830152610e7f81610e46565b9050919050565b7f4f666665722068617320616c7265616479206265656e2061636365707465642e5f82015250565b5f610eba602083610d3e565b9150610ec582610e86565b602082019050919050565b5f6020820190508181035f830152610ee781610eae565b9050919050565b7f4f6e6c79207468652073656c6c65722063616e2061636365707420746865206f5f8201527f666665722e000000000000000000000000000000000000000000000000000000602082015250565b5f610f48602583610d3e565b9150610f5382610eee565b604082019050919050565b5f6020820190508181035f830152610f7581610f3c565b9050919050565b7f4f6666657220616d6f756e7420697320746f6f206c6f772e00000000000000005f82015250565b5f610fb0601883610d3e565b9150610fbb82610f7c565b602082019050919050565b5f6020820190508181035f830152610fdd81610fa4565b9050919050565b5f610fee82610b66565b9150610ff983610b66565b925082820390508181111561101157611010610cca565b5b9291505056fea26469706673582212204163b25bca9713d44b87d5728e0942015ae7d3f584bcabe34f3c480af087639a64736f6c63430008190033",
					"opcodes": "PUSH1 0x80 PUSH1 0x40 MSTORE CALLVALUE DUP1 ISZERO PUSH1 0xE JUMPI PUSH0 DUP1 REVERT JUMPDEST POP PUSH0 PUSH1 0x2 DUP2 SWAP1 SSTORE POP PUSH0 PUSH1 0x3 DUP2 SWAP1 SSTORE POP PUSH2 0x104D DUP1 PUSH2 0x2A PUSH0 CODECOPY PUSH0 RETURN INVALID PUSH1 0x80 PUSH1 0x40 MSTORE PUSH1 0x4 CALLDATASIZE LT PUSH2 0x6F JUMPI PUSH0 CALLDATALOAD PUSH1 0xE0 SHR DUP1 PUSH4 0x81257BD5 GT PUSH2 0x4D JUMPI DUP1 PUSH4 0x81257BD5 EQ PUSH2 0x103 JUMPI DUP1 PUSH4 0x8A72EA6A EQ PUSH2 0x12B JUMPI DUP1 PUSH4 0x9A2F6474 EQ PUSH2 0x16A JUMPI DUP1 PUSH4 0xBFB231D2 EQ PUSH2 0x19A JUMPI PUSH2 0x6F JUMP JUMPDEST DUP1 PUSH4 0x1115C24D EQ PUSH2 0x73 JUMPI DUP1 PUSH4 0x2CE38190 EQ PUSH2 0x9D JUMPI DUP1 PUSH4 0x6BFB0D01 EQ PUSH2 0xD9 JUMPI JUMPDEST PUSH0 DUP1 REVERT JUMPDEST CALLVALUE DUP1 ISZERO PUSH2 0x7E JUMPI PUSH0 DUP1 REVERT JUMPDEST POP PUSH2 0x87 PUSH2 0x1D9 JUMP JUMPDEST PUSH1 0x40 MLOAD PUSH2 0x94 SWAP2 SWAP1 PUSH2 0xB7E JUMP JUMPDEST PUSH1 0x40 MLOAD DUP1 SWAP2 SUB SWAP1 RETURN JUMPDEST CALLVALUE DUP1 ISZERO PUSH2 0xA8 JUMPI PUSH0 DUP1 REVERT JUMPDEST POP PUSH2 0xC3 PUSH1 0x4 DUP1 CALLDATASIZE SUB DUP2 ADD SWAP1 PUSH2 0xBE SWAP2 SWAP1 PUSH2 0xBC5 JUMP JUMPDEST PUSH2 0x1DF JUMP JUMPDEST PUSH1 0x40 MLOAD PUSH2 0xD0 SWAP2 SWAP1 PUSH2 0xB7E JUMP JUMPDEST PUSH1 0x40 MLOAD DUP1 SWAP2 SUB SWAP1 RETURN JUMPDEST CALLVALUE DUP1 ISZERO PUSH2 0xE4 JUMPI PUSH0 DUP1 REVERT JUMPDEST POP PUSH2 0xED PUSH2 0x330 JUMP JUMPDEST PUSH1 0x40 MLOAD PUSH2 0xFA SWAP2 SWAP1 PUSH2 0xB7E JUMP JUMPDEST PUSH1 0x40 MLOAD DUP1 SWAP2 SUB SWAP1 RETURN JUMPDEST CALLVALUE DUP1 ISZERO PUSH2 0x10E JUMPI PUSH0 DUP1 REVERT JUMPDEST POP PUSH2 0x129 PUSH1 0x4 DUP1 CALLDATASIZE SUB DUP2 ADD SWAP1 PUSH2 0x124 SWAP2 SWAP1 PUSH2 0xBF0 JUMP JUMPDEST PUSH2 0x336 JUMP JUMPDEST STOP JUMPDEST CALLVALUE DUP1 ISZERO PUSH2 0x136 JUMPI PUSH0 DUP1 REVERT JUMPDEST POP PUSH2 0x151 PUSH1 0x4 DUP1 CALLDATASIZE SUB DUP2 ADD SWAP1 PUSH2 0x14C SWAP2 SWAP1 PUSH2 0xBC5 JUMP JUMPDEST PUSH2 0x88B JUMP JUMPDEST PUSH1 0x40 MLOAD PUSH2 0x161 SWAP5 SWAP4 SWAP3 SWAP2 SWAP1 PUSH2 0xC87 JUMP JUMPDEST PUSH1 0x40 MLOAD DUP1 SWAP2 SUB SWAP1 RETURN JUMPDEST PUSH2 0x184 PUSH1 0x4 DUP1 CALLDATASIZE SUB DUP2 ADD SWAP1 PUSH2 0x17F SWAP2 SWAP1 PUSH2 0xBC5 JUMP JUMPDEST PUSH2 0x8EF JUMP JUMPDEST PUSH1 0x40 MLOAD PUSH2 0x191 SWAP2 SWAP1 PUSH2 0xB7E JUMP JUMPDEST PUSH1 0x40 MLOAD DUP1 SWAP2 SUB SWAP1 RETURN JUMPDEST CALLVALUE DUP1 ISZERO PUSH2 0x1A5 JUMPI PUSH0 DUP1 REVERT JUMPDEST POP PUSH2 0x1C0 PUSH1 0x4 DUP1 CALLDATASIZE SUB DUP2 ADD SWAP1 PUSH2 0x1BB SWAP2 SWAP1 PUSH2 0xBC5 JUMP JUMPDEST PUSH2 0xB03 JUMP JUMPDEST PUSH1 0x40 MLOAD PUSH2 0x1D0 SWAP5 SWAP4 SWAP3 SWAP2 SWAP1 PUSH2 0xC87 JUMP JUMPDEST PUSH1 0x40 MLOAD DUP1 SWAP2 SUB SWAP1 RETURN JUMPDEST PUSH1 0x3 SLOAD DUP2 JUMP JUMPDEST PUSH0 PUSH1 0x2 PUSH0 DUP2 SLOAD DUP1 SWAP3 SWAP2 SWAP1 PUSH2 0x1F2 SWAP1 PUSH2 0xCF7 JUMP JUMPDEST SWAP2 SWAP1 POP SSTORE POP PUSH1 0x40 MLOAD DUP1 PUSH1 0x80 ADD PUSH1 0x40 MSTORE DUP1 CALLER PUSH20 0xFFFFFFFFFFFFFFFFFFFFFFFFFFFFFFFFFFFFFFFF AND DUP2 MSTORE PUSH1 0x20 ADD DUP4 DUP2 MSTORE PUSH1 0x20 ADD PUSH1 0x1 ISZERO ISZERO DUP2 MSTORE PUSH1 0x20 ADD PUSH0 ISZERO ISZERO DUP2 MSTORE POP PUSH0 DUP1 PUSH1 0x2 SLOAD DUP2 MSTORE PUSH1 0x20 ADD SWAP1 DUP2 MSTORE PUSH1 0x20 ADD PUSH0 KECCAK256 PUSH0 DUP3 ADD MLOAD DUP2 PUSH0 ADD PUSH0 PUSH2 0x100 EXP DUP2 SLOAD DUP2 PUSH20 0xFFFFFFFFFFFFFFFFFFFFFFFFFFFFFFFFFFFFFFFF MUL NOT AND SWAP1 DUP4 PUSH20 0xFFFFFFFFFFFFFFFFFFFFFFFFFFFFFFFFFFFFFFFF AND MUL OR SWAP1 SSTORE POP PUSH1 0x20 DUP3 ADD MLOAD DUP2 PUSH1 0x1 ADD SSTORE PUSH1 0x40 DUP3 ADD MLOAD DUP2 PUSH1 0x2 ADD PUSH0 PUSH2 0x100 EXP DUP2 SLOAD DUP2 PUSH1 0xFF MUL NOT AND SWAP1 DUP4 ISZERO ISZERO MUL OR SWAP1 SSTORE POP PUSH1 0x60 DUP3 ADD MLOAD DUP2 PUSH1 0x2 ADD PUSH1 0x1 PUSH2 0x100 EXP DUP2 SLOAD DUP2 PUSH1 0xFF MUL NOT AND SWAP1 DUP4 ISZERO ISZERO MUL OR SWAP1 SSTORE POP SWAP1 POP POP CALLER PUSH20 0xFFFFFFFFFFFFFFFFFFFFFFFFFFFFFFFFFFFFFFFF AND PUSH1 0x2 SLOAD PUSH32 0xC93EDC6EE14CD6C0C2842099ADFA8953B237DBDAD304BA28E96DCE8A7F2A828C DUP5 PUSH1 0x40 MLOAD PUSH2 0x31E SWAP2 SWAP1 PUSH2 0xB7E JUMP JUMPDEST PUSH1 0x40 MLOAD DUP1 SWAP2 SUB SWAP1 LOG3 PUSH1 0x2 SLOAD SWAP1 POP SWAP2 SWAP1 POP JUMP JUMPDEST PUSH1 0x2 SLOAD DUP2 JUMP JUMPDEST DUP2 PUSH0 DUP1 DUP3 DUP2 MSTORE PUSH1 0x20 ADD SWAP1 DUP2 MSTORE PUSH1 0x20 ADD PUSH0 KECCAK256 PUSH1 0x2 ADD PUSH0 SWAP1 SLOAD SWAP1 PUSH2 0x100 EXP SWAP1 DIV PUSH1 0xFF AND PUSH2 0x396 JUMPI PUSH1 0x40 MLOAD PUSH32 0x8C379A000000000000000000000000000000000000000000000000000000000 DUP2 MSTORE PUSH1 0x4 ADD PUSH2 0x38D SWAP1 PUSH2 0xD98 JUMP JUMPDEST PUSH1 0x40 MLOAD DUP1 SWAP2 SUB SWAP1 REVERT JUMPDEST DUP3 PUSH0 DUP1 DUP3 DUP2 MSTORE PUSH1 0x20 ADD SWAP1 DUP2 MSTORE PUSH1 0x20 ADD PUSH0 KECCAK256 PUSH1 0x2 ADD PUSH1 0x1 SWAP1 SLOAD SWAP1 PUSH2 0x100 EXP SWAP1 DIV PUSH1 0xFF AND ISZERO PUSH2 0x3F8 JUMPI PUSH1 0x40 MLOAD PUSH32 0x8C379A000000000000000000000000000000000000000000000000000000000 DUP2 MSTORE PUSH1 0x4 ADD PUSH2 0x3EF SWAP1 PUSH2 0xE00 JUMP JUMPDEST PUSH1 0x40 MLOAD DUP1 SWAP2 SUB SWAP1 REVERT JUMPDEST DUP3 PUSH1 0x1 PUSH0 DUP3 DUP2 MSTORE PUSH1 0x20 ADD SWAP1 DUP2 MSTORE PUSH1 0x20 ADD PUSH0 KECCAK256 PUSH1 0x2 ADD PUSH0 SWAP1 SLOAD SWAP1 PUSH2 0x100 EXP SWAP1 DIV PUSH1 0xFF AND PUSH2 0x459 JUMPI PUSH1 0x40 MLOAD PUSH32 0x8C379A000000000000000000000000000000000000000000000000000000000 DUP2 MSTORE PUSH1 0x4 ADD PUSH2 0x450 SWAP1 PUSH2 0xE68 JUMP JUMPDEST PUSH1 0x40 MLOAD DUP1 SWAP2 SUB SWAP1 REVERT JUMPDEST DUP4 PUSH1 0x1 PUSH0 DUP3 DUP2 MSTORE PUSH1 0x20 ADD SWAP1 DUP2 MSTORE PUSH1 0x20 ADD PUSH0 KECCAK256 PUSH1 0x2 ADD PUSH1 0x1 SWAP1 SLOAD SWAP1 PUSH2 0x100 EXP SWAP1 DIV PUSH1 0xFF AND ISZERO PUSH2 0x4BC JUMPI PUSH1 0x40 MLOAD PUSH32 0x8C379A000000000000000000000000000000000000000000000000000000000 DUP2 MSTORE PUSH1 0x4 ADD PUSH2 0x4B3 SWAP1 PUSH2 0xED0 JUMP JUMPDEST PUSH1 0x40 MLOAD DUP1 SWAP2 SUB SWAP1 REVERT JUMPDEST CALLER PUSH20 0xFFFFFFFFFFFFFFFFFFFFFFFFFFFFFFFFFFFFFFFF AND PUSH0 DUP1 DUP9 DUP2 MSTORE PUSH1 0x20 ADD SWAP1 DUP2 MSTORE PUSH1 0x20 ADD PUSH0 KECCAK256 PUSH0 ADD PUSH0 SWAP1 SLOAD SWAP1 PUSH2 0x100 EXP SWAP1 DIV PUSH20 0xFFFFFFFFFFFFFFFFFFFFFFFFFFFFFFFFFFFFFFFF AND PUSH20 0xFFFFFFFFFFFFFFFFFFFFFFFFFFFFFFFFFFFFFFFF AND EQ PUSH2 0x55B JUMPI PUSH1 0x40 MLOAD PUSH32 0x8C379A000000000000000000000000000000000000000000000000000000000 DUP2 MSTORE PUSH1 0x4 ADD PUSH2 0x552 SWAP1 PUSH2 0xF5E JUMP JUMPDEST PUSH1 0x40 MLOAD DUP1 SWAP2 SUB SWAP1 REVERT JUMPDEST PUSH0 DUP1 DUP8 DUP2 MSTORE PUSH1 0x20 ADD SWAP1 DUP2 MSTORE PUSH1 0x20 ADD PUSH0 KECCAK256 PUSH1 0x1 ADD SLOAD PUSH1 0x1 PUSH0 DUP8 DUP2 MSTORE PUSH1 0x20 ADD SWAP1 DUP2 MSTORE PUSH1 0x20 ADD PUSH0 KECCAK256 PUSH1 0x1 ADD SLOAD LT ISZERO PUSH2 0x5C5 JUMPI PUSH1 0x40 MLOAD PUSH32 0x8C379A000000000000000000000000000000000000000000000000000000000 DUP2 MSTORE PUSH1 0x4 ADD PUSH2 0x5BC SWAP1 PUSH2 0xFC6 JUMP JUMPDEST PUSH1 0x40 MLOAD DUP1 SWAP2 SUB SWAP1 REVERT JUMPDEST PUSH1 0x1 PUSH0 DUP1 DUP9 DUP2 MSTORE PUSH1 0x20 ADD SWAP1 DUP2 MSTORE PUSH1 0x20 ADD PUSH0 KECCAK256 PUSH1 0x2 ADD PUSH1 0x1 PUSH2 0x100 EXP DUP2 SLOAD DUP2 PUSH1 0xFF MUL NOT AND SWAP1 DUP4 ISZERO ISZERO MUL OR SWAP1 SSTORE POP PUSH0 DUP1 PUSH0 DUP9 DUP2 MSTORE PUSH1 0x20 ADD SWAP1 DUP2 MSTORE PUSH1 0x20 ADD PUSH0 KECCAK256 PUSH1 0x2 ADD PUSH0 PUSH2 0x100 EXP DUP2 SLOAD DUP2 PUSH1 0xFF MUL NOT AND SWAP1 DUP4 ISZERO ISZERO MUL OR SWAP1 SSTORE POP PUSH1 0x1 DUP1 PUSH0 DUP8 DUP2 MSTORE PUSH1 0x20 ADD SWAP1 DUP2 MSTORE PUSH1 0x20 ADD PUSH0 KECCAK256 PUSH1 0x2 ADD PUSH1 0x1 PUSH2 0x100 EXP DUP2 SLOAD DUP2 PUSH1 0xFF MUL NOT AND SWAP1 DUP4 ISZERO ISZERO MUL OR SWAP1 SSTORE POP PUSH0 DUP1 DUP8 DUP2 MSTORE PUSH1 0x20 ADD SWAP1 DUP2 MSTORE PUSH1 0x20 ADD PUSH0 KECCAK256 PUSH0 ADD PUSH0 SWAP1 SLOAD SWAP1 PUSH2 0x100 EXP SWAP1 DIV PUSH20 0xFFFFFFFFFFFFFFFFFFFFFFFFFFFFFFFFFFFFFFFF AND PUSH20 0xFFFFFFFFFFFFFFFFFFFFFFFFFFFFFFFFFFFFFFFF AND PUSH2 0x8FC PUSH0 DUP1 DUP10 DUP2 MSTORE PUSH1 0x20 ADD SWAP1 DUP2 MSTORE PUSH1 0x20 ADD PUSH0 KECCAK256 PUSH1 0x1 ADD SLOAD SWAP1 DUP2 ISZERO MUL SWAP1 PUSH1 0x40 MLOAD PUSH0 PUSH1 0x40 MLOAD DUP1 DUP4 SUB DUP2 DUP6 DUP9 DUP9 CALL SWAP4 POP POP POP POP ISZERO DUP1 ISZERO PUSH2 0x6CE JUMPI RETURNDATASIZE PUSH0 DUP1 RETURNDATACOPY RETURNDATASIZE PUSH0 REVERT JUMPDEST POP PUSH0 DUP1 DUP8 DUP2 MSTORE PUSH1 0x20 ADD SWAP1 DUP2 MSTORE PUSH1 0x20 ADD PUSH0 KECCAK256 PUSH1 0x1 ADD SLOAD PUSH1 0x1 PUSH0 DUP8 DUP2 MSTORE PUSH1 0x20 ADD SWAP1 DUP2 MSTORE PUSH1 0x20 ADD PUSH0 KECCAK256 PUSH1 0x1 ADD SLOAD GT ISZERO PUSH2 0x7A7 JUMPI PUSH1 0x1 PUSH0 DUP7 DUP2 MSTORE PUSH1 0x20 ADD SWAP1 DUP2 MSTORE PUSH1 0x20 ADD PUSH0 KECCAK256 PUSH0 ADD PUSH0 SWAP1 SLOAD SWAP1 PUSH2 0x100 EXP SWAP1 DIV PUSH20 0xFFFFFFFFFFFFFFFFFFFFFFFFFFFFFFFFFFFFFFFF AND PUSH20 0xFFFFFFFFFFFFFFFFFFFFFFFFFFFFFFFFFFFFFFFF AND PUSH2 0x8FC PUSH0 DUP1 DUP10 DUP2 MSTORE PUSH1 0x20 ADD SWAP1 DUP2 MSTORE PUSH1 0x20 ADD PUSH0 KECCAK256 PUSH1 0x1 ADD SLOAD PUSH1 0x1 PUSH0 DUP10 DUP2 MSTORE PUSH1 0x20 ADD SWAP1 DUP2 MSTORE PUSH1 0x20 ADD PUSH0 KECCAK256 PUSH1 0x1 ADD SLOAD PUSH2 0x77D SWAP2 SWAP1 PUSH2 0xFE4 JUMP JUMPDEST SWAP1 DUP2 ISZERO MUL SWAP1 PUSH1 0x40 MLOAD PUSH0 PUSH1 0x40 MLOAD DUP1 DUP4 SUB DUP2 DUP6 DUP9 DUP9 CALL SWAP4 POP POP POP POP ISZERO DUP1 ISZERO PUSH2 0x7A5 JUMPI RETURNDATASIZE PUSH0 DUP1 RETURNDATACOPY RETURNDATASIZE PUSH0 REVERT JUMPDEST POP JUMPDEST PUSH1 0x1 PUSH0 DUP7 DUP2 MSTORE PUSH1 0x20 ADD SWAP1 DUP2 MSTORE PUSH1 0x20 ADD PUSH0 KECCAK256 PUSH0 ADD PUSH0 SWAP1 SLOAD SWAP1 PUSH2 0x100 EXP SWAP1 DIV PUSH20 0xFFFFFFFFFFFFFFFFFFFFFFFFFFFFFFFFFFFFFFFF AND PUSH20 0xFFFFFFFFFFFFFFFFFFFFFFFFFFFFFFFFFFFFFFFF AND PUSH0 DUP1 DUP9 DUP2 MSTORE PUSH1 0x20 ADD SWAP1 DUP2 MSTORE PUSH1 0x20 ADD PUSH0 KECCAK256 PUSH0 ADD PUSH0 SWAP1 SLOAD SWAP1 PUSH2 0x100 EXP SWAP1 DIV PUSH20 0xFFFFFFFFFFFFFFFFFFFFFFFFFFFFFFFFFFFFFFFF AND PUSH20 0xFFFFFFFFFFFFFFFFFFFFFFFFFFFFFFFFFFFFFFFF AND DUP8 PUSH32 0xC67F49229CAB3F614AD390C12432E0E671552DCFD15E24DDC005CF5A01A02135 PUSH0 DUP1 DUP12 DUP2 MSTORE PUSH1 0x20 ADD SWAP1 DUP2 MSTORE PUSH1 0x20 ADD PUSH0 KECCAK256 PUSH1 0x1 ADD SLOAD PUSH1 0x40 MLOAD PUSH2 0x87B SWAP2 SWAP1 PUSH2 0xB7E JUMP JUMPDEST PUSH1 0x40 MLOAD DUP1 SWAP2 SUB SWAP1 LOG4 POP POP POP POP POP POP JUMP JUMPDEST PUSH1 0x1 PUSH1 0x20 MSTORE DUP1 PUSH0 MSTORE PUSH1 0x40 PUSH0 KECCAK256 PUSH0 SWAP2 POP SWAP1 POP DUP1 PUSH0 ADD PUSH0 SWAP1 SLOAD SWAP1 PUSH2 0x100 EXP SWAP1 DIV PUSH20 0xFFFFFFFFFFFFFFFFFFFFFFFFFFFFFFFFFFFFFFFF AND SWAP1 DUP1 PUSH1 0x1 ADD SLOAD SWAP1 DUP1 PUSH1 0x2 ADD PUSH0 SWAP1 SLOAD SWAP1 PUSH2 0x100 EXP SWAP1 DIV PUSH1 0xFF AND SWAP1 DUP1 PUSH1 0x2 ADD PUSH1 0x1 SWAP1 SLOAD SWAP1 PUSH2 0x100 EXP SWAP1 DIV PUSH1 0xFF AND SWAP1 POP DUP5 JUMP JUMPDEST PUSH0 DUP2 PUSH0 DUP1 DUP3 DUP2 MSTORE PUSH1 0x20 ADD SWAP1 DUP2 MSTORE PUSH1 0x20 ADD PUSH0 KECCAK256 PUSH1 0x2 ADD PUSH0 SWAP1 SLOAD SWAP1 PUSH2 0x100 EXP SWAP1 DIV PUSH1 0xFF AND PUSH2 0x950 JUMPI PUSH1 0x40 MLOAD PUSH32 0x8C379A000000000000000000000000000000000000000000000000000000000 DUP2 MSTORE PUSH1 0x4 ADD PUSH2 0x947 SWAP1 PUSH2 0xD98 JUMP JUMPDEST PUSH1 0x40 MLOAD DUP1 SWAP2 SUB SWAP1 REVERT JUMPDEST DUP3 PUSH0 DUP1 DUP3 DUP2 MSTORE PUSH1 0x20 ADD SWAP1 DUP2 MSTORE PUSH1 0x20 ADD PUSH0 KECCAK256 PUSH1 0x2 ADD PUSH1 0x1 SWAP1 SLOAD SWAP1 PUSH2 0x100 EXP SWAP1 DIV PUSH1 0xFF AND ISZERO PUSH2 0x9B2 JUMPI PUSH1 0x40 MLOAD PUSH32 0x8C379A000000000000000000000000000000000000000000000000000000000 DUP2 MSTORE PUSH1 0x4 ADD PUSH2 0x9A9 SWAP1 PUSH2 0xE00 JUMP JUMPDEST PUSH1 0x40 MLOAD DUP1 SWAP2 SUB SWAP1 REVERT JUMPDEST PUSH1 0x3 PUSH0 DUP2 SLOAD DUP1 SWAP3 SWAP2 SWAP1 PUSH2 0x9C4 SWAP1 PUSH2 0xCF7 JUMP JUMPDEST SWAP2 SWAP1 POP SSTORE POP PUSH1 0x40 MLOAD DUP1 PUSH1 0x80 ADD PUSH1 0x40 MSTORE DUP1 CALLER PUSH20 0xFFFFFFFFFFFFFFFFFFFFFFFFFFFFFFFFFFFFFFFF AND DUP2 MSTORE PUSH1 0x20 ADD CALLVALUE DUP2 MSTORE PUSH1 0x20 ADD PUSH1 0x1 ISZERO ISZERO DUP2 MSTORE PUSH1 0x20 ADD PUSH0 ISZERO ISZERO DUP2 MSTORE POP PUSH1 0x1 PUSH0 PUSH1 0x3 SLOAD DUP2 MSTORE PUSH1 0x20 ADD SWAP1 DUP2 MSTORE PUSH1 0x20 ADD PUSH0 KECCAK256 PUSH0 DUP3 ADD MLOAD DUP2 PUSH0 ADD PUSH0 PUSH2 0x100 EXP DUP2 SLOAD DUP2 PUSH20 0xFFFFFFFFFFFFFFFFFFFFFFFFFFFFFFFFFFFFFFFF MUL NOT AND SWAP1 DUP4 PUSH20 0xFFFFFFFFFFFFFFFFFFFFFFFFFFFFFFFFFFFFFFFF AND MUL OR SWAP1 SSTORE POP PUSH1 0x20 DUP3 ADD MLOAD DUP2 PUSH1 0x1 ADD SSTORE PUSH1 0x40 DUP3 ADD MLOAD DUP2 PUSH1 0x2 ADD PUSH0 PUSH2 0x100 EXP DUP2 SLOAD DUP2 PUSH1 0xFF MUL NOT AND SWAP1 DUP4 ISZERO ISZERO MUL OR SWAP1 SSTORE POP PUSH1 0x60 DUP3 ADD MLOAD DUP2 PUSH1 0x2 ADD PUSH1 0x1 PUSH2 0x100 EXP DUP2 SLOAD DUP2 PUSH1 0xFF MUL NOT AND SWAP1 DUP4 ISZERO ISZERO MUL OR SWAP1 SSTORE POP SWAP1 POP POP CALLER PUSH20 0xFFFFFFFFFFFFFFFFFFFFFFFFFFFFFFFFFFFFFFFF AND DUP5 PUSH32 0xD294AFEC9D7AB02D1BC3B945A2E833190E9AC8C221C99A27A16AFAB5CF59E928 CALLVALUE PUSH1 0x40 MLOAD PUSH2 0xAEF SWAP2 SWAP1 PUSH2 0xB7E JUMP JUMPDEST PUSH1 0x40 MLOAD DUP1 SWAP2 SUB SWAP1 LOG3 PUSH1 0x3 SLOAD SWAP3 POP POP POP SWAP2 SWAP1 POP JUMP JUMPDEST PUSH0 PUSH1 0x20 MSTORE DUP1 PUSH0 MSTORE PUSH1 0x40 PUSH0 KECCAK256 PUSH0 SWAP2 POP SWAP1 POP DUP1 PUSH0 ADD PUSH0 SWAP1 SLOAD SWAP1 PUSH2 0x100 EXP SWAP1 DIV PUSH20 0xFFFFFFFFFFFFFFFFFFFFFFFFFFFFFFFFFFFFFFFF AND SWAP1 DUP1 PUSH1 0x1 ADD SLOAD SWAP1 DUP1 PUSH1 0x2 ADD PUSH0 SWAP1 SLOAD SWAP1 PUSH2 0x100 EXP SWAP1 DIV PUSH1 0xFF AND SWAP1 DUP1 PUSH1 0x2 ADD PUSH1 0x1 SWAP1 SLOAD SWAP1 PUSH2 0x100 EXP SWAP1 DIV PUSH1 0xFF AND SWAP1 POP DUP5 JUMP JUMPDEST PUSH0 DUP2 SWAP1 POP SWAP2 SWAP1 POP JUMP JUMPDEST PUSH2 0xB78 DUP2 PUSH2 0xB66 JUMP JUMPDEST DUP3 MSTORE POP POP JUMP JUMPDEST PUSH0 PUSH1 0x20 DUP3 ADD SWAP1 POP PUSH2 0xB91 PUSH0 DUP4 ADD DUP5 PUSH2 0xB6F JUMP JUMPDEST SWAP3 SWAP2 POP POP JUMP JUMPDEST PUSH0 DUP1 REVERT JUMPDEST PUSH2 0xBA4 DUP2 PUSH2 0xB66 JUMP JUMPDEST DUP2 EQ PUSH2 0xBAE JUMPI PUSH0 DUP1 REVERT JUMPDEST POP JUMP JUMPDEST PUSH0 DUP2 CALLDATALOAD SWAP1 POP PUSH2 0xBBF DUP2 PUSH2 0xB9B JUMP JUMPDEST SWAP3 SWAP2 POP POP JUMP JUMPDEST PUSH0 PUSH1 0x20 DUP3 DUP5 SUB SLT ISZERO PUSH2 0xBDA JUMPI PUSH2 0xBD9 PUSH2 0xB97 JUMP JUMPDEST JUMPDEST PUSH0 PUSH2 0xBE7 DUP5 DUP3 DUP6 ADD PUSH2 0xBB1 JUMP JUMPDEST SWAP2 POP POP SWAP3 SWAP2 POP POP JUMP JUMPDEST PUSH0 DUP1 PUSH1 0x40 DUP4 DUP6 SUB SLT ISZERO PUSH2 0xC06 JUMPI PUSH2 0xC05 PUSH2 0xB97 JUMP JUMPDEST JUMPDEST PUSH0 PUSH2 0xC13 DUP6 DUP3 DUP7 ADD PUSH2 0xBB1 JUMP JUMPDEST SWAP3 POP POP PUSH1 0x20 PUSH2 0xC24 DUP6 DUP3 DUP7 ADD PUSH2 0xBB1 JUMP JUMPDEST SWAP2 POP POP SWAP3 POP SWAP3 SWAP1 POP JUMP JUMPDEST PUSH0 PUSH20 0xFFFFFFFFFFFFFFFFFFFFFFFFFFFFFFFFFFFFFFFF DUP3 AND SWAP1 POP SWAP2 SWAP1 POP JUMP JUMPDEST PUSH0 PUSH2 0xC57 DUP3 PUSH2 0xC2E JUMP JUMPDEST SWAP1 POP SWAP2 SWAP1 POP JUMP JUMPDEST PUSH2 0xC67 DUP2 PUSH2 0xC4D JUMP JUMPDEST DUP3 MSTORE POP POP JUMP JUMPDEST PUSH0 DUP2 ISZERO ISZERO SWAP1 POP SWAP2 SWAP1 POP JUMP JUMPDEST PUSH2 0xC81 DUP2 PUSH2 0xC6D JUMP JUMPDEST DUP3 MSTORE POP POP JUMP JUMPDEST PUSH0 PUSH1 0x80 DUP3 ADD SWAP1 POP PUSH2 0xC9A PUSH0 DUP4 ADD DUP8 PUSH2 0xC5E JUMP JUMPDEST PUSH2 0xCA7 PUSH1 0x20 DUP4 ADD DUP7 PUSH2 0xB6F JUMP JUMPDEST PUSH2 0xCB4 PUSH1 0x40 DUP4 ADD DUP6 PUSH2 0xC78 JUMP JUMPDEST PUSH2 0xCC1 PUSH1 0x60 DUP4 ADD DUP5 PUSH2 0xC78 JUMP JUMPDEST SWAP6 SWAP5 POP POP POP POP POP JUMP JUMPDEST PUSH32 0x4E487B7100000000000000000000000000000000000000000000000000000000 PUSH0 MSTORE PUSH1 0x11 PUSH1 0x4 MSTORE PUSH1 0x24 PUSH0 REVERT JUMPDEST PUSH0 PUSH2 0xD01 DUP3 PUSH2 0xB66 JUMP JUMPDEST SWAP2 POP PUSH32 0xFFFFFFFFFFFFFFFFFFFFFFFFFFFFFFFFFFFFFFFFFFFFFFFFFFFFFFFFFFFFFFFF DUP3 SUB PUSH2 0xD33 JUMPI PUSH2 0xD32 PUSH2 0xCCA JUMP JUMPDEST JUMPDEST PUSH1 0x1 DUP3 ADD SWAP1 POP SWAP2 SWAP1 POP JUMP JUMPDEST PUSH0 DUP3 DUP3 MSTORE PUSH1 0x20 DUP3 ADD SWAP1 POP SWAP3 SWAP2 POP POP JUMP JUMPDEST PUSH32 0x4974656D20646F6573206E6F742065786973742E000000000000000000000000 PUSH0 DUP3 ADD MSTORE POP JUMP JUMPDEST PUSH0 PUSH2 0xD82 PUSH1 0x14 DUP4 PUSH2 0xD3E JUMP JUMPDEST SWAP2 POP PUSH2 0xD8D DUP3 PUSH2 0xD4E JUMP JUMPDEST PUSH1 0x20 DUP3 ADD SWAP1 POP SWAP2 SWAP1 POP JUMP JUMPDEST PUSH0 PUSH1 0x20 DUP3 ADD SWAP1 POP DUP2 DUP2 SUB PUSH0 DUP4 ADD MSTORE PUSH2 0xDAF DUP2 PUSH2 0xD76 JUMP JUMPDEST SWAP1 POP SWAP2 SWAP1 POP JUMP JUMPDEST PUSH32 0x4974656D2068617320616C7265616479206265656E20736F6C642E0000000000 PUSH0 DUP3 ADD MSTORE POP JUMP JUMPDEST PUSH0 PUSH2 0xDEA PUSH1 0x1B DUP4 PUSH2 0xD3E JUMP JUMPDEST SWAP2 POP PUSH2 0xDF5 DUP3 PUSH2 0xDB6 JUMP JUMPDEST PUSH1 0x20 DUP3 ADD SWAP1 POP SWAP2 SWAP1 POP JUMP JUMPDEST PUSH0 PUSH1 0x20 DUP3 ADD SWAP1 POP DUP2 DUP2 SUB PUSH0 DUP4 ADD MSTORE PUSH2 0xE17 DUP2 PUSH2 0xDDE JUMP JUMPDEST SWAP1 POP SWAP2 SWAP1 POP JUMP JUMPDEST PUSH32 0x4F6666657220646F6573206E6F742065786973742E0000000000000000000000 PUSH0 DUP3 ADD MSTORE POP JUMP JUMPDEST PUSH0 PUSH2 0xE52 PUSH1 0x15 DUP4 PUSH2 0xD3E JUMP JUMPDEST SWAP2 POP PUSH2 0xE5D DUP3 PUSH2 0xE1E JUMP JUMPDEST PUSH1 0x20 DUP3 ADD SWAP1 POP SWAP2 SWAP1 POP JUMP JUMPDEST PUSH0 PUSH1 0x20 DUP3 ADD SWAP1 POP DUP2 DUP2 SUB PUSH0 DUP4 ADD MSTORE PUSH2 0xE7F DUP2 PUSH2 0xE46 JUMP JUMPDEST SWAP1 POP SWAP2 SWAP1 POP JUMP JUMPDEST PUSH32 0x4F666665722068617320616C7265616479206265656E2061636365707465642E PUSH0 DUP3 ADD MSTORE POP JUMP JUMPDEST PUSH0 PUSH2 0xEBA PUSH1 0x20 DUP4 PUSH2 0xD3E JUMP JUMPDEST SWAP2 POP PUSH2 0xEC5 DUP3 PUSH2 0xE86 JUMP JUMPDEST PUSH1 0x20 DUP3 ADD SWAP1 POP SWAP2 SWAP1 POP JUMP JUMPDEST PUSH0 PUSH1 0x20 DUP3 ADD SWAP1 POP DUP2 DUP2 SUB PUSH0 DUP4 ADD MSTORE PUSH2 0xEE7 DUP2 PUSH2 0xEAE JUMP JUMPDEST SWAP1 POP SWAP2 SWAP1 POP JUMP JUMPDEST PUSH32 0x4F6E6C79207468652073656C6C65722063616E2061636365707420746865206F PUSH0 DUP3 ADD MSTORE PUSH32 0x666665722E000000000000000000000000000000000000000000000000000000 PUSH1 0x20 DUP3 ADD MSTORE POP JUMP JUMPDEST PUSH0 PUSH2 0xF48 PUSH1 0x25 DUP4 PUSH2 0xD3E JUMP JUMPDEST SWAP2 POP PUSH2 0xF53 DUP3 PUSH2 0xEEE JUMP JUMPDEST PUSH1 0x40 DUP3 ADD SWAP1 POP SWAP2 SWAP1 POP JUMP JUMPDEST PUSH0 PUSH1 0x20 DUP3 ADD SWAP1 POP DUP2 DUP2 SUB PUSH0 DUP4 ADD MSTORE PUSH2 0xF75 DUP2 PUSH2 0xF3C JUMP JUMPDEST SWAP1 POP SWAP2 SWAP1 POP JUMP JUMPDEST PUSH32 0x4F6666657220616D6F756E7420697320746F6F206C6F772E0000000000000000 PUSH0 DUP3 ADD MSTORE POP JUMP JUMPDEST PUSH0 PUSH2 0xFB0 PUSH1 0x18 DUP4 PUSH2 0xD3E JUMP JUMPDEST SWAP2 POP PUSH2 0xFBB DUP3 PUSH2 0xF7C JUMP JUMPDEST PUSH1 0x20 DUP3 ADD SWAP1 POP SWAP2 SWAP1 POP JUMP JUMPDEST PUSH0 PUSH1 0x20 DUP3 ADD SWAP1 POP DUP2 DUP2 SUB PUSH0 DUP4 ADD MSTORE PUSH2 0xFDD DUP2 PUSH2 0xFA4 JUMP JUMPDEST SWAP1 POP SWAP2 SWAP1 POP JUMP JUMPDEST PUSH0 PUSH2 0xFEE DUP3 PUSH2 0xB66 JUMP JUMPDEST SWAP2 POP PUSH2 0xFF9 DUP4 PUSH2 0xB66 JUMP JUMPDEST SWAP3 POP DUP3 DUP3 SUB SWAP1 POP DUP2 DUP2 GT ISZERO PUSH2 0x1011 JUMPI PUSH2 0x1010 PUSH2 0xCCA JUMP JUMPDEST JUMPDEST SWAP3 SWAP2 POP POP JUMP INVALID LOG2 PUSH5 0x6970667358 0x22 SLT KECCAK256 COINBASE PUSH4 0xB25BCA97 SGT 0xD4 0x4B DUP8 0xD5 PUSH19 0x8E0942015AE7D3F584BCABE34F3C480AF08763 SWAP11 PUSH5 0x736F6C6343 STOP ADDMOD NOT STOP CALLER "
				},
				"gasEstimates": {
					"creation": {
						"codeDepositCost": "834600",
						"executionCost": "10894",
						"totalCost": "845494"
					},
					"external": {
						"acceptOffer(uint256,uint256)": "infinite",
						"itemCount()": "2470",
						"items(uint256)": "infinite",
						"listItem(uint256)": "infinite",
						"makeOffer(uint256)": "infinite",
						"offerCount()": "2426",
						"offers(uint256)": "infinite"
					}
				},
				"methodIdentifiers": {
					"acceptOffer(uint256,uint256)": "81257bd5",
					"itemCount()": "6bfb0d01",
					"items(uint256)": "bfb231d2",
					"listItem(uint256)": "2ce38190",
					"makeOffer(uint256)": "9a2f6474",
					"offerCount()": "1115c24d",
					"offers(uint256)": "8a72ea6a"
				}
			},
			"storageLayout": {
				"storage": [
					{
						"astId": 24,
						"contract": "Copy_marketPlace.sol:Marketplace",
						"label": "items",
						"offset": 0,
						"slot": "0",
						"type": "t_mapping(t_uint256,t_struct(Item)10_storage)"
					},
					{
						"astId": 29,
						"contract": "Copy_marketPlace.sol:Marketplace",
						"label": "offers",
						"offset": 0,
						"slot": "1",
						"type": "t_mapping(t_uint256,t_struct(Offer)19_storage)"
					},
					{
						"astId": 31,
						"contract": "Copy_marketPlace.sol:Marketplace",
						"label": "itemCount",
						"offset": 0,
						"slot": "2",
						"type": "t_uint256"
					},
					{
						"astId": 33,
						"contract": "Copy_marketPlace.sol:Marketplace",
						"label": "offerCount",
						"offset": 0,
						"slot": "3",
						"type": "t_uint256"
					}
				],
				"types": {
					"t_address": {
						"encoding": "inplace",
						"label": "address",
						"numberOfBytes": "20"
					},
					"t_bool": {
						"encoding": "inplace",
						"label": "bool",
						"numberOfBytes": "1"
					},
					"t_mapping(t_uint256,t_struct(Item)10_storage)": {
						"encoding": "mapping",
						"key": "t_uint256",
						"label": "mapping(uint256 => struct Marketplace.Item)",
						"numberOfBytes": "32",
						"value": "t_struct(Item)10_storage"
					},
					"t_mapping(t_uint256,t_struct(Offer)19_storage)": {
						"encoding": "mapping",
						"key": "t_uint256",
						"label": "mapping(uint256 => struct Marketplace.Offer)",
						"numberOfBytes": "32",
						"value": "t_struct(Offer)19_storage"
					},
					"t_struct(Item)10_storage": {
						"encoding": "inplace",
						"label": "struct Marketplace.Item",
						"members": [
							{
								"astId": 3,
								"contract": "Copy_marketPlace.sol:Marketplace",
								"label": "seller",
								"offset": 0,
								"slot": "0",
								"type": "t_address"
							},
							{
								"astId": 5,
								"contract": "Copy_marketPlace.sol:Marketplace",
								"label": "price",
								"offset": 0,
								"slot": "1",
								"type": "t_uint256"
							},
							{
								"astId": 7,
								"contract": "Copy_marketPlace.sol:Marketplace",
								"label": "exists",
								"offset": 0,
								"slot": "2",
								"type": "t_bool"
							},
							{
								"astId": 9,
								"contract": "Copy_marketPlace.sol:Marketplace",
								"label": "sold",
								"offset": 1,
								"slot": "2",
								"type": "t_bool"
							}
						],
						"numberOfBytes": "96"
					},
					"t_struct(Offer)19_storage": {
						"encoding": "inplace",
						"label": "struct Marketplace.Offer",
						"members": [
							{
								"astId": 12,
								"contract": "Copy_marketPlace.sol:Marketplace",
								"label": "buyer",
								"offset": 0,
								"slot": "0",
								"type": "t_address"
							},
							{
								"astId": 14,
								"contract": "Copy_marketPlace.sol:Marketplace",
								"label": "amount",
								"offset": 0,
								"slot": "1",
								"type": "t_uint256"
							},
							{
								"astId": 16,
								"contract": "Copy_marketPlace.sol:Marketplace",
								"label": "exists",
								"offset": 0,
								"slot": "2",
								"type": "t_bool"
							},
							{
								"astId": 18,
								"contract": "Copy_marketPlace.sol:Marketplace",
								"label": "accepted",
								"offset": 1,
								"slot": "2",
								"type": "t_bool"
							}
						],
						"numberOfBytes": "96"
					},
					"t_uint256": {
						"encoding": "inplace",
						"label": "uint256",
						"numberOfBytes": "32"
					}
				}
			},
			"userdoc": {
				"kind": "user",
				"methods": {},
				"version": 1
			}
		}
	}
}